{
  "_format": "hh-sol-artifact-1",
  "contractName": "PatientHealthRecord",
  "sourceName": "contracts/PatientHealthRecord.sol",
  "abi": [
    {
      "inputs": [
        {
          "internalType": "string",
          "name": "_newCondition",
          "type": "string"
        },
        {
          "internalType": "uint256",
          "name": "patientID",
          "type": "uint256"
        }
      ],
      "name": "addCondition",
      "outputs": [],
      "stateMutability": "nonpayable",
      "type": "function"
    },
    {
      "inputs": [
        {
          "internalType": "uint256",
          "name": "_dependencyID",
          "type": "uint256"
        },
        {
          "internalType": "string",
          "name": "_dependencyName",
          "type": "string"
        },
        {
          "internalType": "string",
          "name": "_dependencyRelationship",
          "type": "string"
        },
        {
          "internalType": "string",
          "name": "_dependencyAddress",
          "type": "string"
        },
        {
          "internalType": "uint256",
          "name": "_contactNumber",
          "type": "uint256"
        }
      ],
      "name": "addDependency",
      "outputs": [],
      "stateMutability": "nonpayable",
      "type": "function"
    },
    {
      "inputs": [
        {
          "internalType": "uint256",
          "name": "_medicationID",
          "type": "uint256"
        },
        {
          "internalType": "string",
          "name": "_medicationName",
          "type": "string"
        },
        {
          "internalType": "string",
          "name": "_expirationDate",
          "type": "string"
        },
        {
          "internalType": "string",
          "name": "_dosage",
          "type": "string"
        },
        {
          "internalType": "uint256",
          "name": "_price",
          "type": "uint256"
        }
      ],
      "name": "addMedication",
      "outputs": [],
      "stateMutability": "nonpayable",
      "type": "function"
    },
    {
      "inputs": [
        {
          "internalType": "uint256",
          "name": "_patientID",
          "type": "uint256"
        },
        {
          "internalType": "uint256",
          "name": "_medicineID",
          "type": "uint256"
        }
      ],
      "name": "addPrescription",
      "outputs": [],
      "stateMutability": "nonpayable",
      "type": "function"
    },
    {
      "inputs": [
        {
          "internalType": "address",
          "name": "",
          "type": "address"
        }
      ],
      "name": "addressToDoctor",
      "outputs": [
        {
          "internalType": "uint256",
          "name": "doctorID",
          "type": "uint256"
        },
        {
          "internalType": "string",
          "name": "doctorName",
          "type": "string"
        },
        {
          "internalType": "string",
          "name": "specialty",
          "type": "string"
        },
        {
          "internalType": "string",
          "name": "workplace",
          "type": "string"
        }
      ],
      "stateMutability": "view",
      "type": "function"
    },
    {
      "inputs": [
        {
          "internalType": "uint256",
          "name": "_doctorID",
          "type": "uint256"
        }
      ],
      "name": "approveDoctor",
      "outputs": [],
      "stateMutability": "nonpayable",
      "type": "function"
    },
    {
      "inputs": [],
      "name": "counterDoctorID",
      "outputs": [
        {
          "internalType": "uint256",
          "name": "",
          "type": "uint256"
        }
      ],
      "stateMutability": "view",
      "type": "function"
    },
    {
      "inputs": [],
      "name": "counterPatientID",
      "outputs": [
        {
          "internalType": "uint256",
          "name": "",
          "type": "uint256"
        }
      ],
      "stateMutability": "view",
      "type": "function"
    },
    {
      "inputs": [
        {
          "internalType": "uint256",
          "name": "",
          "type": "uint256"
        }
      ],
      "name": "dependencyIdToBool",
      "outputs": [
        {
          "internalType": "bool",
          "name": "",
          "type": "bool"
        }
      ],
      "stateMutability": "view",
      "type": "function"
    },
    {
      "inputs": [
        {
          "internalType": "uint256",
          "name": "_doctorId",
          "type": "uint256"
        }
      ],
      "name": "getDoctorDetails",
      "outputs": [
        {
          "components": [
            {
              "internalType": "uint256",
              "name": "doctorID",
              "type": "uint256"
            },
            {
              "internalType": "string",
              "name": "doctorName",
              "type": "string"
            },
            {
              "internalType": "string",
              "name": "specialty",
              "type": "string"
            },
            {
              "internalType": "string",
              "name": "workplace",
              "type": "string"
            }
          ],
          "internalType": "struct PatientHealthRecord.Doctor",
          "name": "",
          "type": "tuple"
        }
      ],
      "stateMutability": "view",
      "type": "function"
    },
    {
      "inputs": [
        {
          "internalType": "uint256",
          "name": "",
          "type": "uint256"
        }
      ],
      "name": "idToDependency",
      "outputs": [
        {
          "internalType": "uint256",
          "name": "dependencyId",
          "type": "uint256"
        },
        {
          "internalType": "string",
          "name": "dependencyName",
          "type": "string"
        },
        {
          "internalType": "string",
          "name": "dependencyAddress",
          "type": "string"
        },
        {
          "internalType": "string",
          "name": "dependencyRelationship",
          "type": "string"
        },
        {
          "internalType": "uint256",
          "name": "contactNumber",
          "type": "uint256"
        }
      ],
      "stateMutability": "view",
      "type": "function"
    },
    {
      "inputs": [
        {
          "internalType": "uint256",
          "name": "",
          "type": "uint256"
        }
      ],
      "name": "idToMedication",
      "outputs": [
        {
          "internalType": "uint256",
          "name": "medicationId",
          "type": "uint256"
        },
        {
          "internalType": "string",
          "name": "medicationName",
          "type": "string"
        },
        {
          "internalType": "string",
          "name": "expirationDate",
          "type": "string"
        },
        {
          "internalType": "string",
          "name": "dosage",
          "type": "string"
        },
        {
          "internalType": "uint256",
          "name": "price",
          "type": "uint256"
        }
      ],
      "stateMutability": "view",
      "type": "function"
    },
    {
      "inputs": [
        {
          "internalType": "uint256",
          "name": "",
          "type": "uint256"
        }
      ],
      "name": "medicationIdToBool",
      "outputs": [
        {
          "internalType": "bool",
          "name": "",
          "type": "bool"
        }
      ],
      "stateMutability": "view",
      "type": "function"
    },
    {
      "inputs": [
        {
          "internalType": "string",
          "name": "_name",
          "type": "string"
        },
        {
          "internalType": "string",
          "name": "_specialty",
          "type": "string"
        },
        {
          "internalType": "string",
          "name": "_workplace",
          "type": "string"
        }
      ],
      "name": "registerNewDoctor",
      "outputs": [],
      "stateMutability": "nonpayable",
      "type": "function"
    },
    {
      "inputs": [
        {
          "internalType": "string",
          "name": "_name",
          "type": "string"
        },
        {
          "internalType": "string",
          "name": "_gender",
          "type": "string"
        },
        {
          "internalType": "uint8",
          "name": "_age",
          "type": "uint8"
        }
      ],
      "name": "registerNewPatient",
      "outputs": [],
      "stateMutability": "nonpayable",
      "type": "function"
    },
    {
      "inputs": [
        {
          "internalType": "uint8",
          "name": "_age",
          "type": "uint8"
        }
      ],
      "name": "updateMyAge",
      "outputs": [],
      "stateMutability": "nonpayable",
      "type": "function"
    },
    {
      "inputs": [
        {
          "internalType": "address",
          "name": "",
          "type": "address"
        }
      ],
      "name": "verifiedDoctor",
      "outputs": [
        {
          "internalType": "bool",
          "name": "",
          "type": "bool"
        }
      ],
      "stateMutability": "view",
      "type": "function"
    },
    {
      "inputs": [],
      "name": "viewListOfDoctors",
      "outputs": [
        {
          "components": [
            {
              "internalType": "uint256",
              "name": "doctorID",
              "type": "uint256"
            },
            {
              "internalType": "string",
              "name": "doctorName",
              "type": "string"
            },
            {
              "internalType": "string",
              "name": "specialty",
              "type": "string"
            },
            {
              "internalType": "string",
              "name": "workplace",
              "type": "string"
            }
          ],
          "internalType": "struct PatientHealthRecord.Doctor[]",
          "name": "",
          "type": "tuple[]"
        }
      ],
      "stateMutability": "view",
      "type": "function"
    },
    {
      "inputs": [],
      "name": "viewListofDependencies",
      "outputs": [
        {
          "components": [
            {
              "internalType": "uint256",
              "name": "dependencyId",
              "type": "uint256"
            },
            {
              "internalType": "string",
              "name": "dependencyName",
              "type": "string"
            },
            {
              "internalType": "string",
              "name": "dependencyAddress",
              "type": "string"
            },
            {
              "internalType": "string",
              "name": "dependencyRelationship",
              "type": "string"
            },
            {
              "internalType": "uint256",
              "name": "contactNumber",
              "type": "uint256"
            }
          ],
          "internalType": "struct PatientHealthRecord.Dependency[]",
          "name": "",
          "type": "tuple[]"
        }
      ],
      "stateMutability": "view",
      "type": "function"
    },
    {
      "inputs": [],
      "name": "viewListofMedications",
      "outputs": [
        {
          "components": [
            {
              "internalType": "uint256",
              "name": "medicationId",
              "type": "uint256"
            },
            {
              "internalType": "string",
              "name": "medicationName",
              "type": "string"
            },
            {
              "internalType": "string",
              "name": "expirationDate",
              "type": "string"
            },
            {
              "internalType": "string",
              "name": "dosage",
              "type": "string"
            },
            {
              "internalType": "uint256",
              "name": "price",
              "type": "uint256"
            }
          ],
          "internalType": "struct PatientHealthRecord.Medication[]",
          "name": "",
          "type": "tuple[]"
        }
      ],
      "stateMutability": "view",
      "type": "function"
    },
    {
      "inputs": [],
      "name": "viewMyRecords",
      "outputs": [
        {
          "components": [
            {
              "internalType": "uint256",
              "name": "patientID",
              "type": "uint256"
            },
            {
              "internalType": "string",
              "name": "patientName",
              "type": "string"
            },
            {
              "internalType": "string",
              "name": "patientGender",
              "type": "string"
            },
            {
              "internalType": "uint8",
              "name": "patientAge",
              "type": "uint8"
            },
            {
              "internalType": "string[]",
              "name": "conditions",
              "type": "string[]"
            },
            {
              "components": [
                {
                  "internalType": "uint256",
                  "name": "medicationId",
                  "type": "uint256"
                },
                {
                  "internalType": "string",
                  "name": "medicationName",
                  "type": "string"
                },
                {
                  "internalType": "string",
                  "name": "expirationDate",
                  "type": "string"
                },
                {
                  "internalType": "string",
                  "name": "dosage",
                  "type": "string"
                },
                {
                  "internalType": "uint256",
                  "name": "price",
                  "type": "uint256"
                }
              ],
              "internalType": "struct PatientHealthRecord.Medication[]",
              "name": "prescriptions",
              "type": "tuple[]"
            },
            {
              "components": [
                {
                  "internalType": "uint256",
                  "name": "dependencyId",
                  "type": "uint256"
                },
                {
                  "internalType": "string",
                  "name": "dependencyName",
                  "type": "string"
                },
                {
                  "internalType": "string",
                  "name": "dependencyAddress",
                  "type": "string"
                },
                {
                  "internalType": "string",
                  "name": "dependencyRelationship",
                  "type": "string"
                },
                {
                  "internalType": "uint256",
                  "name": "contactNumber",
                  "type": "uint256"
                }
              ],
              "internalType": "struct PatientHealthRecord.Dependency[]",
              "name": "dependencies",
              "type": "tuple[]"
            }
          ],
          "internalType": "struct PatientHealthRecord.Patient",
          "name": "",
          "type": "tuple"
        }
      ],
      "stateMutability": "view",
      "type": "function"
    },
    {
      "inputs": [
        {
          "internalType": "uint256",
          "name": "_patientID",
          "type": "uint256"
        }
      ],
      "name": "viewPatientRecords",
      "outputs": [
        {
          "components": [
            {
              "internalType": "uint256",
              "name": "patientID",
              "type": "uint256"
            },
            {
              "internalType": "string",
              "name": "patientName",
              "type": "string"
            },
            {
              "internalType": "string",
              "name": "patientGender",
              "type": "string"
            },
            {
              "internalType": "uint8",
              "name": "patientAge",
              "type": "uint8"
            },
            {
              "internalType": "string[]",
              "name": "conditions",
              "type": "string[]"
            },
            {
              "components": [
                {
                  "internalType": "uint256",
                  "name": "medicationId",
                  "type": "uint256"
                },
                {
                  "internalType": "string",
                  "name": "medicationName",
                  "type": "string"
                },
                {
                  "internalType": "string",
                  "name": "expirationDate",
                  "type": "string"
                },
                {
                  "internalType": "string",
                  "name": "dosage",
                  "type": "string"
                },
                {
                  "internalType": "uint256",
                  "name": "price",
                  "type": "uint256"
                }
              ],
              "internalType": "struct PatientHealthRecord.Medication[]",
              "name": "prescriptions",
              "type": "tuple[]"
            },
            {
              "components": [
                {
                  "internalType": "uint256",
                  "name": "dependencyId",
                  "type": "uint256"
                },
                {
                  "internalType": "string",
                  "name": "dependencyName",
                  "type": "string"
                },
                {
                  "internalType": "string",
                  "name": "dependencyAddress",
                  "type": "string"
                },
                {
                  "internalType": "string",
                  "name": "dependencyRelationship",
                  "type": "string"
                },
                {
                  "internalType": "uint256",
                  "name": "contactNumber",
                  "type": "uint256"
                }
              ],
              "internalType": "struct PatientHealthRecord.Dependency[]",
              "name": "dependencies",
              "type": "tuple[]"
            }
          ],
          "internalType": "struct PatientHealthRecord.Patient",
          "name": "",
          "type": "tuple"
        }
      ],
      "stateMutability": "view",
      "type": "function"
    }
  ],
  "bytecode": "0x608060405260016000556001805534801561001957600080fd5b50613977806100296000396000f3fe608060405234801561001057600080fd5b50600436106101425760003560e01c80635de931e4116100b85780638a63bd181161007c5780638a63bd18146102f15780638c691a4b146103065780638f33295d1461030e578063ad86ac8314610331578063b3799fe314610348578063b485e8711461035157600080fd5b80635de931e4146102855780636c3c8c62146102985780637883d4a2146102ab5780637f18e263146102be578063827219bb146102d157600080fd5b8063360a108f1161010a578063360a108f146101f25780633b6d5b8c146102075780634162aa6d1461022757806344f6fe6f1461024a578063462160981461025f5780634f5bdf1c1461027257600080fd5b80630134234e1461014757806305a71ab4146101745780630ec785a4146101a7578063181f4976146101ca5780631e29a19f146101df575b600080fd5b61015a610155366004612e88565b610364565b60405161016b959493929190612ee7565b60405180910390f35b610197610182366004612e88565b600e6020526000908152604090205460ff1681565b604051901515815260200161016b565b6101ba6101b5366004612f39565b61052b565b60405161016b9493929190612f69565b6101dd6101d8366004612fb3565b6106ec565b005b6101dd6101ed36600461301e565b6108b9565b6101fa610b7f565b60405161016b9190613132565b61021a610215366004612e88565b610ddd565b60405161016b91906131ef565b610197610235366004612f39565b60076020526000908152604090205460ff1681565b610252611057565b60405161016b9190613202565b6101dd61026d366004613257565b6112a2565b6101dd610280366004613307565b611431565b6101dd610293366004613322565b6114b0565b6101dd6102a636600461301e565b6115a0565b6101dd6102b9366004612e88565b61181e565b61015a6102cc366004612e88565b611926565b6102e46102df366004612e88565b611948565b60405161016b919061340b565b6102f96120c7565b60405161016b91906134b5565b6102e461231c565b61019761031c366004612e88565b60106020526000908152604090205460ff1681565b61033a60015481565b60405190815260200161016b565b61033a60005481565b6101dd61035f3660046134c8565b612a16565b600f602052600090815260409020805460018201805491929161038690613549565b80601f01602080910402602001604051908101604052809291908181526020018280546103b290613549565b80156103ff5780601f106103d4576101008083540402835291602001916103ff565b820191906000526020600020905b8154815290600101906020018083116103e257829003601f168201915b50505050509080600201805461041490613549565b80601f016020809104026020016040519081016040528092919081815260200182805461044090613549565b801561048d5780601f106104625761010080835404028352916020019161048d565b820191906000526020600020905b81548152906001019060200180831161047057829003601f168201915b5050505050908060030180546104a290613549565b80601f01602080910402602001604051908101604052809291908181526020018280546104ce90613549565b801561051b5780601f106104f05761010080835404028352916020019161051b565b820191906000526020600020905b8154815290600101906020018083116104fe57829003601f168201915b5050505050908060040154905085565b6009602052600090815260409020805460018201805491929161054d90613549565b80601f016020809104026020016040519081016040528092919081815260200182805461057990613549565b80156105c65780601f1061059b576101008083540402835291602001916105c6565b820191906000526020600020905b8154815290600101906020018083116105a957829003601f168201915b5050505050908060020180546105db90613549565b80601f016020809104026020016040519081016040528092919081815260200182805461060790613549565b80156106545780601f1061062957610100808354040283529160200191610654565b820191906000526020600020905b81548152906001019060200180831161063757829003601f168201915b50505050509080600301805461066990613549565b80601f016020809104026020016040519081016040528092919081815260200182805461069590613549565b80156106e25780601f106106b7576101008083540402835291602001916106e2565b820191906000526020600020905b8154815290600101906020018083116106c557829003601f168201915b5050505050905084565b3360009081526007602052604090205460ff1615156001146107295760405162461bcd60e51b81526004016107209061357d565b60405180910390fd5b336000908152600c60209081526040808320858452600a8352818420546001600160a01b03168452909152902054829060ff166107785760405162461bcd60e51b8152600401610720906135a4565b82600081116107995760405162461bcd60e51b8152600401610720906135f8565b82600081116107ba5760405162461bcd60e51b8152600401610720906135f8565b6000848152600e602052604090205460ff16151560011461081d5760405162461bcd60e51b815260206004820152601a60248201527f4d656469636174696f6e206e6f742072656769737465726564210000000000006044820152606401610720565b6000858152600a60209081526040808320546001600160a01b0316835260088252808320878452600d83529083206005808301805460018181018355918752949095208254949091020192835590929091829181810190610880908401826136a9565b50600281810190610893908401826136a9565b506003818101906108a6908401826136a9565b5060049182015491015550505050505050565b3360009081526006602052604090205460ff1615156001146108ed5760405162461bcd60e51b815260040161072090613784565b876000811161090e5760405162461bcd60e51b8152600401610720906135f8565b816000811161092f5760405162461bcd60e51b8152600401610720906135f8565b60008a81526010602052604090205460ff161561098e5760405162461bcd60e51b815260206004820152601f60248201527f446570656e64656e63792020616c7265616479207265676973746572656421006044820152606401610720565b60008a8152601060209081526040808320805460ff19166001179055805160a0810182528d81528151601f8d018490048402810184019092528b82529182810191908d908d9081908401838280828437600092019190915250505090825250604080516020601f8c018190048102820181019092528a815291810191908b908b9081908401838280828437600092019190915250505090825250604080516020601f8a0181900481028201810190925288815291810191908990899081908401838280828437600092018290525093855250505060209182018790528d8152600f825260409020825181559082015191925082916001820190610a9190826137ac565b5060408201516002820190610aa690826137ac565b5060608201516003820190610abb90826137ac565b506080919091015160049091015560028054600181018255600091909152815160059091027f405787fa12a823e0f2b7631cc41b3ba8828b3321ca811111fa75cd3aa3bb5ace810191825560208301518392917f405787fa12a823e0f2b7631cc41b3ba8828b3321ca811111fa75cd3aa3bb5acf0190610b3b90826137ac565b5060408201516002820190610b5090826137ac565b5060608201516003820190610b6590826137ac565b506080820151816004015550505050505050505050505050565b3360009081526006602052604090205460609060ff161515600114610bb65760405162461bcd60e51b815260040161072090613784565b6002805480602002602001604051908101604052809291908181526020016000905b82821015610dd457838290600052602060002090600502016040518060a001604052908160008201548152602001600182018054610c1590613549565b80601f0160208091040260200160405190810160405280929190818152602001828054610c4190613549565b8015610c8e5780601f10610c6357610100808354040283529160200191610c8e565b820191906000526020600020905b815481529060010190602001808311610c7157829003601f168201915b50505050508152602001600282018054610ca790613549565b80601f0160208091040260200160405190810160405280929190818152602001828054610cd390613549565b8015610d205780601f10610cf557610100808354040283529160200191610d20565b820191906000526020600020905b815481529060010190602001808311610d0357829003601f168201915b50505050508152602001600382018054610d3990613549565b80601f0160208091040260200160405190810160405280929190818152602001828054610d6590613549565b8015610db25780601f10610d8757610100808354040283529160200191610db2565b820191906000526020600020905b815481529060010190602001808311610d9557829003601f168201915b5050505050815260200160048201548152505081526020019060010190610bd8565b50505050905090565b610e086040518060800160405280600081526020016060815260200160608152602001606081525090565b8160008111610e295760405162461bcd60e51b8152600401610720906135f8565b3360009081526006602052604090205460ff161515600114610e5d5760405162461bcd60e51b815260040161072090613784565b6000838152600b60209081526040808320546001600160a01b03168084526009835292819020815160808101909252805482526001810180549293919291840191610ea790613549565b80601f0160208091040260200160405190810160405280929190818152602001828054610ed390613549565b8015610f205780601f10610ef557610100808354040283529160200191610f20565b820191906000526020600020905b815481529060010190602001808311610f0357829003601f168201915b50505050508152602001600282018054610f3990613549565b80601f0160208091040260200160405190810160405280929190818152602001828054610f6590613549565b8015610fb25780601f10610f8757610100808354040283529160200191610fb2565b820191906000526020600020905b815481529060010190602001808311610f9557829003601f168201915b50505050508152602001600382018054610fcb90613549565b80601f0160208091040260200160405190810160405280929190818152602001828054610ff790613549565b80156110445780601f1061101957610100808354040283529160200191611044565b820191906000526020600020905b81548152906001019060200180831161102757829003601f168201915b5050505050815250509250505b50919050565b3360009081526006602052604090205460609060ff16151560011461108e5760405162461bcd60e51b815260040161072090613784565b6004805480602002602001604051908101604052809291908181526020016000905b82821015610dd45783829060005260206000209060040201604051806080016040529081600082015481526020016001820180546110ed90613549565b80601f016020809104026020016040519081016040528092919081815260200182805461111990613549565b80156111665780601f1061113b57610100808354040283529160200191611166565b820191906000526020600020905b81548152906001019060200180831161114957829003601f168201915b5050505050815260200160028201805461117f90613549565b80601f01602080910402602001604051908101604052809291908181526020018280546111ab90613549565b80156111f85780601f106111cd576101008083540402835291602001916111f8565b820191906000526020600020905b8154815290600101906020018083116111db57829003601f168201915b5050505050815260200160038201805461121190613549565b80601f016020809104026020016040519081016040528092919081815260200182805461123d90613549565b801561128a5780601f1061125f5761010080835404028352916020019161128a565b820191906000526020600020905b81548152906001019060200180831161126d57829003601f168201915b505050505081525050815260200190600101906110b0565b3360009081526007602052604090205460ff16156113025760405162461bcd60e51b815260206004820152601e60248201527f446f63746f722068617320616c726561647920726567697374657265642100006044820152606401610720565b336000908152600760209081526040808320805460ff1916600190811790915560099092529091208154815590810161133c878983613860565b506002810161134c858783613860565b506003810161135c838583613860565b50600480546001818101835560008390528354919092027f8a35acfbc15ff81a39ae7d344fd709f28e8600b4aa8c65c6b64bfe7fe36bd19b810191825583927f8a35acfbc15ff81a39ae7d344fd709f28e8600b4aa8c65c6b64bfe7fe36bd19c909101906113cc908401826136a9565b506002818101906113df908401826136a9565b506003818101906113f2908401826136a9565b5050600180546000908152600b6020526040812080546001600160a01b03191633179055815492506114238361391a565b919050555050505050505050565b8060ff16600081116114555760405162461bcd60e51b8152600401610720906135f8565b3360009081526006602052604090205460ff1615156001146114895760405162461bcd60e51b815260040161072090613784565b50336000908152600860205260409020600301805460ff191660ff92909216919091179055565b3360009081526007602052604090205460ff1615156001146114e45760405162461bcd60e51b81526004016107209061357d565b336000908152600c60209081526040808320848452600a8352818420546001600160a01b03168452909152902054819060ff166115335760405162461bcd60e51b8152600401610720906135a4565b81600081116115545760405162461bcd60e51b8152600401610720906135f8565b6000838152600a60209081526040808320546001600160a01b03168084526008835290832060040180546001810182559084529190922001611597868883613860565b50505050505050565b3360009081526007602052604090205460ff1615156001146115d45760405162461bcd60e51b81526004016107209061357d565b87600081116115f55760405162461bcd60e51b8152600401610720906135f8565b81600081116116165760405162461bcd60e51b8152600401610720906135f8565b60008a8152600e602052604090205460ff16156116755760405162461bcd60e51b815260206004820152601e60248201527f4d656469636174696f6e20616c726561647920726567697374657265642100006044820152606401610720565b60008a8152600e60209081526040808320805460ff19166001179055805160a0810182528d81528151601f8d018490048402810184019092528b82529182810191908d908d9081908401838280828437600092019190915250505090825250604080516020601f8c018190048102820181019092528a815291810191908b908b9081908401838280828437600092019190915250505090825250604080516020601f8a0181900481028201810190925288815291810191908990899081908401838280828437600092018290525093855250505060209182018790528d8152600d82526040902082518155908201519192508291600182019061177890826137ac565b506040820151600282019061178d90826137ac565b50606082015160038201906117a290826137ac565b5060809190910151600490910155600580546001810182556000829052825191027f036b6384b5eca791c62761152d0c79bb0604c104a5fb6f4eb0703f3154bb3db0810191825560208301518392917f036b6384b5eca791c62761152d0c79bb0604c104a5fb6f4eb0703f3154bb3db10190610b3b90826137ac565b806000811161183f5760405162461bcd60e51b8152600401610720906135f8565b3360009081526006602052604090205460ff1615156001146118735760405162461bcd60e51b815260040161072090613784565b6000828152600b60209081526040808320546001600160a01b03168352600790915290205460ff1615156001146118ec5760405162461bcd60e51b815260206004820152601e60248201527f5468697320646f63746f72206973206e6f7420726567697374657265642100006044820152606401610720565b506000908152600b60209081526040808320546001600160a01b03168352600c82528083203384529091529020805460ff19166001179055565b600d602052600090815260409020805460018201805491929161038690613549565b61198b6040518060e00160405280600081526020016060815260200160608152602001600060ff1681526020016060815260200160608152602001606081525090565b3360009081526007602052604090205460ff1615156001146119bf5760405162461bcd60e51b81526004016107209061357d565b336000908152600c60209081526040808320858452600a8352818420546001600160a01b03168452909152902054829060ff16611a0e5760405162461bcd60e51b8152600401610720906135a4565b8260008111611a2f5760405162461bcd60e51b8152600401610720906135f8565b6000848152600a60209081526040808320546001600160a01b031683526008825291829020825160e08101909352805483526001810180549192840191611a7590613549565b80601f0160208091040260200160405190810160405280929190818152602001828054611aa190613549565b8015611aee5780601f10611ac357610100808354040283529160200191611aee565b820191906000526020600020905b815481529060010190602001808311611ad157829003601f168201915b50505050508152602001600282018054611b0790613549565b80601f0160208091040260200160405190810160405280929190818152602001828054611b3390613549565b8015611b805780601f10611b5557610100808354040283529160200191611b80565b820191906000526020600020905b815481529060010190602001808311611b6357829003601f168201915b5050509183525050600382015460ff16602080830191909152600483018054604080518285028101850182528281529401939260009084015b82821015611c65578382906000526020600020018054611bd890613549565b80601f0160208091040260200160405190810160405280929190818152602001828054611c0490613549565b8015611c515780601f10611c2657610100808354040283529160200191611c51565b820191906000526020600020905b815481529060010190602001808311611c3457829003601f168201915b505050505081526020019060010190611bb9565b50505050815260200160058201805480602002602001604051908101604052809291908181526020016000905b82821015611e8e57838290600052602060002090600502016040518060a001604052908160008201548152602001600182018054611ccf90613549565b80601f0160208091040260200160405190810160405280929190818152602001828054611cfb90613549565b8015611d485780601f10611d1d57610100808354040283529160200191611d48565b820191906000526020600020905b815481529060010190602001808311611d2b57829003601f168201915b50505050508152602001600282018054611d6190613549565b80601f0160208091040260200160405190810160405280929190818152602001828054611d8d90613549565b8015611dda5780601f10611daf57610100808354040283529160200191611dda565b820191906000526020600020905b815481529060010190602001808311611dbd57829003601f168201915b50505050508152602001600382018054611df390613549565b80601f0160208091040260200160405190810160405280929190818152602001828054611e1f90613549565b8015611e6c5780601f10611e4157610100808354040283529160200191611e6c565b820191906000526020600020905b815481529060010190602001808311611e4f57829003601f168201915b5050505050815260200160048201548152505081526020019060010190611c92565b50505050815260200160068201805480602002602001604051908101604052809291908181526020016000905b828210156120b757838290600052602060002090600502016040518060a001604052908160008201548152602001600182018054611ef890613549565b80601f0160208091040260200160405190810160405280929190818152602001828054611f2490613549565b8015611f715780601f10611f4657610100808354040283529160200191611f71565b820191906000526020600020905b815481529060010190602001808311611f5457829003601f168201915b50505050508152602001600282018054611f8a90613549565b80601f0160208091040260200160405190810160405280929190818152602001828054611fb690613549565b80156120035780601f10611fd857610100808354040283529160200191612003565b820191906000526020600020905b815481529060010190602001808311611fe657829003601f168201915b5050505050815260200160038201805461201c90613549565b80601f016020809104026020016040519081016040528092919081815260200182805461204890613549565b80156120955780601f1061206a57610100808354040283529160200191612095565b820191906000526020600020905b81548152906001019060200180831161207857829003601f168201915b5050505050815260200160048201548152505081526020019060010190611ebb565b5050509152509095945050505050565b3360009081526007602052604090205460609060ff1615156001146120fe5760405162461bcd60e51b81526004016107209061357d565b6005805480602002602001604051908101604052809291908181526020016000905b82821015610dd457838290600052602060002090600502016040518060a00160405290816000820154815260200160018201805461215d90613549565b80601f016020809104026020016040519081016040528092919081815260200182805461218990613549565b80156121d65780601f106121ab576101008083540402835291602001916121d6565b820191906000526020600020905b8154815290600101906020018083116121b957829003601f168201915b505050505081526020016002820180546121ef90613549565b80601f016020809104026020016040519081016040528092919081815260200182805461221b90613549565b80156122685780601f1061223d57610100808354040283529160200191612268565b820191906000526020600020905b81548152906001019060200180831161224b57829003601f168201915b5050505050815260200160038201805461228190613549565b80601f01602080910402602001604051908101604052809291908181526020018280546122ad90613549565b80156122fa5780601f106122cf576101008083540402835291602001916122fa565b820191906000526020600020905b8154815290600101906020018083116122dd57829003601f168201915b5050505050815260200160048201548152505081526020019060010190612120565b61235f6040518060e00160405280600081526020016060815260200160608152602001600060ff1681526020016060815260200160608152602001606081525090565b3360009081526006602052604090205460ff1615156001146123935760405162461bcd60e51b815260040161072090613784565b33600090815260086020908152604091829020825160e081019093528054835260018101805491928401916123c790613549565b80601f01602080910402602001604051908101604052809291908181526020018280546123f390613549565b80156124405780601f1061241557610100808354040283529160200191612440565b820191906000526020600020905b81548152906001019060200180831161242357829003601f168201915b5050505050815260200160028201805461245990613549565b80601f016020809104026020016040519081016040528092919081815260200182805461248590613549565b80156124d25780601f106124a7576101008083540402835291602001916124d2565b820191906000526020600020905b8154815290600101906020018083116124b557829003601f168201915b5050509183525050600382015460ff16602080830191909152600483018054604080518285028101850182528281529401939260009084015b828210156125b757838290600052602060002001805461252a90613549565b80601f016020809104026020016040519081016040528092919081815260200182805461255690613549565b80156125a35780601f10612578576101008083540402835291602001916125a3565b820191906000526020600020905b81548152906001019060200180831161258657829003601f168201915b50505050508152602001906001019061250b565b50505050815260200160058201805480602002602001604051908101604052809291908181526020016000905b828210156127e057838290600052602060002090600502016040518060a00160405290816000820154815260200160018201805461262190613549565b80601f016020809104026020016040519081016040528092919081815260200182805461264d90613549565b801561269a5780601f1061266f5761010080835404028352916020019161269a565b820191906000526020600020905b81548152906001019060200180831161267d57829003601f168201915b505050505081526020016002820180546126b390613549565b80601f01602080910402602001604051908101604052809291908181526020018280546126df90613549565b801561272c5780601f106127015761010080835404028352916020019161272c565b820191906000526020600020905b81548152906001019060200180831161270f57829003601f168201915b5050505050815260200160038201805461274590613549565b80601f016020809104026020016040519081016040528092919081815260200182805461277190613549565b80156127be5780601f10612793576101008083540402835291602001916127be565b820191906000526020600020905b8154815290600101906020018083116127a157829003601f168201915b50505050508152602001600482015481525050815260200190600101906125e4565b50505050815260200160068201805480602002602001604051908101604052809291908181526020016000905b82821015612a0957838290600052602060002090600502016040518060a00160405290816000820154815260200160018201805461284a90613549565b80601f016020809104026020016040519081016040528092919081815260200182805461287690613549565b80156128c35780601f10612898576101008083540402835291602001916128c3565b820191906000526020600020905b8154815290600101906020018083116128a657829003601f168201915b505050505081526020016002820180546128dc90613549565b80601f016020809104026020016040519081016040528092919081815260200182805461290890613549565b80156129555780601f1061292a57610100808354040283529160200191612955565b820191906000526020600020905b81548152906001019060200180831161293857829003601f168201915b5050505050815260200160038201805461296e90613549565b80601f016020809104026020016040519081016040528092919081815260200182805461299a90613549565b80156129e75780601f106129bc576101008083540402835291602001916129e7565b820191906000526020600020905b8154815290600101906020018083116129ca57829003601f168201915b505050505081526020016004820154815250508152602001906001019061280d565b5050505081525050905090565b8060ff1660008111612a3a5760405162461bcd60e51b8152600401610720906135f8565b3360009081526006602052604090205460ff1615612a9a5760405162461bcd60e51b815260206004820152601f60248201527f50617469656e742068617320616c7265616479207265676973746572656421006044820152606401610720565b3360009081526008602052604081209054815560018101612abc878983613860565b5060028101612acc858783613860565b506003808201805460ff861660ff19909116179055600080548152600a6020526040812080546001600160a01b0319163317905581546001818101845592909152825460079091027fc2575a0e9e593c00f959f8c92f12db2869c3395a3b0502d05e2516446f71f85b810191825583927fc2575a0e9e593c00f959f8c92f12db2869c3395a3b0502d05e2516446f71f85c90910190612b6d908401826136a9565b50600281810190612b80908401826136a9565b50600382810154908201805460ff191660ff90921691909117905560048083018054612baf9284019190612c03565b5060058281018054612bc49284019190612c5b565b5060068281018054612bd99284019190612cf4565b5050336000908152600660205260408120805460ff1916600117905580549150806114238361391a565b828054828255906000526020600020908101928215612c4b5760005260206000209182015b82811115612c4b5781612c3b84826136a9565b5091600101919060010190612c28565b50612c57929150612d8d565b5090565b828054828255906000526020600020906005028101928215612ce85760005260206000209160050282015b82811115612ce857825482558282600180820190612ca6908401826136a9565b50600281810190612cb9908401826136a9565b50600381810190612ccc908401826136a9565b5060048201548160040155505091600501919060050190612c86565b50612c57929150612daa565b828054828255906000526020600020906005028101928215612d815760005260206000209160050282015b82811115612d8157825482558282600180820190612d3f908401826136a9565b50600281810190612d52908401826136a9565b50600381810190612d65908401826136a9565b5060048201548160040155505091600501919060050190612d1f565b50612c57929150612df0565b80821115612c57576000612da18282612e36565b50600101612d8d565b80821115612c57576000808255612dc46001830182612e36565b612dd2600283016000612e36565b612de0600383016000612e36565b5060006004820155600501612daa565b80821115612c57576000808255612e0a6001830182612e36565b612e18600283016000612e36565b612e26600383016000612e36565b5060006004820155600501612df0565b508054612e4290613549565b6000825580601f10612e52575050565b601f016020900490600052602060002090810190612e709190612e73565b50565b5b80821115612c575760008155600101612e74565b600060208284031215612e9a57600080fd5b5035919050565b6000815180845260005b81811015612ec757602081850181015186830182015201612eab565b506000602082860101526020601f19601f83011685010191505092915050565b85815260a060208201526000612f0060a0830187612ea1565b8281036040840152612f128187612ea1565b90508281036060840152612f268186612ea1565b9150508260808301529695505050505050565b600060208284031215612f4b57600080fd5b81356001600160a01b0381168114612f6257600080fd5b9392505050565b848152608060208201526000612f826080830186612ea1565b8281036040840152612f948186612ea1565b90508281036060840152612fa88185612ea1565b979650505050505050565b60008060408385031215612fc657600080fd5b50508035926020909101359150565b60008083601f840112612fe757600080fd5b50813567ffffffffffffffff811115612fff57600080fd5b60208301915083602082850101111561301757600080fd5b9250929050565b60008060008060008060008060a0898b03121561303a57600080fd5b88359750602089013567ffffffffffffffff8082111561305957600080fd5b6130658c838d01612fd5565b909950975060408b013591508082111561307e57600080fd5b61308a8c838d01612fd5565b909750955060608b01359150808211156130a357600080fd5b506130b08b828c01612fd5565b999c989b50969995989497949560800135949350505050565b805182526000602082015160a060208501526130e860a0850182612ea1565b9050604083015184820360408601526131018282612ea1565b9150506060830151848203606086015261311b8282612ea1565b915050608083015160808501528091505092915050565b6000602080830181845280855180835260408601915060408160051b870101925083870160005b8281101561318757603f198886030184526131758583516130c9565b94509285019290850190600101613159565b5092979650505050505050565b8051825260006020820151608060208501526131b36080850182612ea1565b9050604083015184820360408601526131cc8282612ea1565b915050606083015184820360608601526131e68282612ea1565b95945050505050565b602081526000612f626020830184613194565b6000602080830181845280855180835260408601915060408160051b870101925083870160005b8281101561318757603f19888603018452613245858351613194565b94509285019290850190600101613229565b6000806000806000806060878903121561327057600080fd5b863567ffffffffffffffff8082111561328857600080fd5b6132948a838b01612fd5565b909850965060208901359150808211156132ad57600080fd5b6132b98a838b01612fd5565b909650945060408901359150808211156132d257600080fd5b506132df89828a01612fd5565b979a9699509497509295939492505050565b803560ff8116811461330257600080fd5b919050565b60006020828403121561331957600080fd5b612f62826132f1565b60008060006040848603121561333757600080fd5b833567ffffffffffffffff81111561334e57600080fd5b61335a86828701612fd5565b909790965060209590950135949350505050565b600081518084526020808501808196508360051b8101915082860160005b858110156133b65782840389526133a4848351612ea1565b9885019893509084019060010161338c565b5091979650505050505050565b600081518084526020808501808196508360051b8101915082860160005b858110156133b65782840389526133f98483516130c9565b988501989350908401906001016133e1565b60208152815160208201526000602083015160e06040840152613432610100840182612ea1565b90506040840151601f19808584030160608601526134508383612ea1565b925060ff606087015116608086015260808601519150808584030160a086015261347a838361336e565b925060a08601519150808584030160c086015261349783836133c3565b925060c08601519150808584030160e0860152506131e682826133c3565b602081526000612f6260208301846133c3565b6000806000806000606086880312156134e057600080fd5b853567ffffffffffffffff808211156134f857600080fd5b61350489838a01612fd5565b9097509550602088013591508082111561351d57600080fd5b5061352a88828901612fd5565b909450925061353d9050604087016132f1565b90509295509295909350565b600181811c9082168061355d57607f821691505b60208210810361105157634e487b7160e01b600052602260045260246000fd5b6020808252600d908201526c4e6f74206120646f63746f722160981b604082015260600190565b60208082526034908201527f446f63746f7220646f6573206e6f74206861766520617070726f76616c20746f60408201527320747265617420746869732070617469656e742160601b606082015260800190565b6020808252601d908201527f56616c7565206d7573742062652067726561746572207468616e203021000000604082015260600190565b634e487b7160e01b600052604160045260246000fd5b601f82111561368f57600081815260208120601f850160051c8101602086101561366c5750805b601f850160051c820191505b8181101561368b57828155600101613678565b5050505b505050565b600019600383901b1c191660019190911b1790565b8181036136b4575050565b6136be8254613549565b67ffffffffffffffff8111156136d6576136d661362f565b6136ea816136e48454613549565b84613645565b6000601f82116001811461371857600083156137065750848201545b6137108482613694565b85555061377d565b600085815260209020601f19841690600086815260209020845b838110156137525782860154825560019586019590910190602001613732565b50858310156137705781850154600019600388901b60f8161c191681555b50505060018360011b0184555b5050505050565b6020808252600e908201526d4e6f7420612070617469656e742160901b604082015260600190565b815167ffffffffffffffff8111156137c6576137c661362f565b6137d4816136e48454613549565b602080601f83116001811461380357600084156137f15750858301515b6137fb8582613694565b86555061368b565b600085815260208120601f198616915b8281101561383257888601518255948401946001909101908401613813565b50858210156138505787850151600019600388901b60f8161c191681555b5050505050600190811b01905550565b67ffffffffffffffff8311156138785761387861362f565b61388c836138868354613549565b83613645565b6000601f8411600181146138ba57600085156138a85750838201355b6138b28682613694565b84555061377d565b600083815260209020601f19861690835b828110156138eb57868501358255602094850194600190920191016138cb565b50868210156139085760001960f88860031b161c19848701351681555b505060018560011b0183555050505050565b60006001820161393a57634e487b7160e01b600052601160045260246000fd5b506001019056fea26469706673582212202e3bf208055b59422fbfb292d4cb326c9c9d111fc11b1cf1b44fb519853093dd64736f6c63430008110033",
  "linkReferences": {},
  "deployedLinkReferences": {}
}