{
  "_format": "hh-sol-artifact-1",
  "contractName": "PatientHealthRecord",
  "sourceName": "contracts/PatientHealthRecord.sol",
  "abi": [
    {
      "inputs": [
        {
          "internalType": "string",
          "name": "_newCondition",
          "type": "string"
        },
        {
          "internalType": "uint256",
          "name": "patientID",
          "type": "uint256"
        }
      ],
      "name": "addCondition",
      "outputs": [],
      "stateMutability": "nonpayable",
      "type": "function"
    },
    {
      "inputs": [
        {
          "internalType": "uint256",
          "name": "_dependencyID",
          "type": "uint256"
        },
        {
          "internalType": "string",
          "name": "_dependencyName",
          "type": "string"
        },
        {
          "internalType": "string",
          "name": "_dependencyRelationship",
          "type": "string"
        },
        {
          "internalType": "string",
          "name": "_dependencyAddress",
          "type": "string"
        },
        {
          "internalType": "uint256",
          "name": "_contactNumber",
          "type": "uint256"
        }
      ],
      "name": "addDependency",
      "outputs": [],
      "stateMutability": "nonpayable",
      "type": "function"
    },
    {
      "inputs": [
        {
          "internalType": "uint256",
          "name": "_medicationID",
          "type": "uint256"
        },
        {
          "internalType": "string",
          "name": "_medicationName",
          "type": "string"
        },
        {
          "internalType": "string",
          "name": "_dosage",
          "type": "string"
        },
        {
          "internalType": "uint256",
          "name": "_price",
          "type": "uint256"
        }
      ],
      "name": "addMedication",
      "outputs": [],
      "stateMutability": "nonpayable",
      "type": "function"
    },
    {
      "inputs": [
        {
          "internalType": "uint256",
          "name": "_patientID",
          "type": "uint256"
        },
        {
          "internalType": "uint256",
          "name": "_medicineID",
          "type": "uint256"
        }
      ],
      "name": "addPrescription",
      "outputs": [],
      "stateMutability": "nonpayable",
      "type": "function"
    },
    {
      "inputs": [
        {
          "internalType": "address",
          "name": "",
          "type": "address"
        }
      ],
      "name": "addressToDoctor",
      "outputs": [
        {
          "internalType": "uint256",
          "name": "doctorID",
          "type": "uint256"
        },
        {
          "internalType": "string",
          "name": "doctorName",
          "type": "string"
        },
        {
          "internalType": "string",
          "name": "specialty",
          "type": "string"
        },
        {
          "internalType": "string",
          "name": "workplace",
          "type": "string"
        }
      ],
      "stateMutability": "view",
      "type": "function"
    },
    {
      "inputs": [
        {
          "internalType": "uint256",
          "name": "_doctorID",
          "type": "uint256"
        }
      ],
      "name": "approveDoctor",
      "outputs": [],
      "stateMutability": "nonpayable",
      "type": "function"
    },
    {
      "inputs": [],
      "name": "counterDoctorID",
      "outputs": [
        {
          "internalType": "uint256",
          "name": "",
          "type": "uint256"
        }
      ],
      "stateMutability": "view",
      "type": "function"
    },
    {
      "inputs": [],
      "name": "counterPatientID",
      "outputs": [
        {
          "internalType": "uint256",
          "name": "",
          "type": "uint256"
        }
      ],
      "stateMutability": "view",
      "type": "function"
    },
    {
      "inputs": [
        {
          "internalType": "uint256",
          "name": "",
          "type": "uint256"
        }
      ],
      "name": "dependencyIdToBool",
      "outputs": [
        {
          "internalType": "bool",
          "name": "",
          "type": "bool"
        }
      ],
      "stateMutability": "view",
      "type": "function"
    },
    {
      "inputs": [
        {
          "internalType": "enum PatientHealthRecord.Gender",
          "name": "",
          "type": "uint8"
        }
      ],
      "name": "gender",
      "outputs": [
        {
          "internalType": "string",
          "name": "",
          "type": "string"
        }
      ],
      "stateMutability": "view",
      "type": "function"
    },
    {
      "inputs": [
        {
          "internalType": "uint256",
          "name": "_doctorId",
          "type": "uint256"
        }
      ],
      "name": "getDoctorDetails",
      "outputs": [
        {
          "components": [
            {
              "internalType": "uint256",
              "name": "doctorID",
              "type": "uint256"
            },
            {
              "internalType": "string",
              "name": "doctorName",
              "type": "string"
            },
            {
              "internalType": "string",
              "name": "specialty",
              "type": "string"
            },
            {
              "internalType": "string",
              "name": "workplace",
              "type": "string"
            }
          ],
          "internalType": "struct PatientHealthRecord.Doctor",
          "name": "",
          "type": "tuple"
        }
      ],
      "stateMutability": "view",
      "type": "function"
    },
    {
      "inputs": [
        {
          "internalType": "uint256",
          "name": "",
          "type": "uint256"
        }
      ],
      "name": "idToDependency",
      "outputs": [
        {
          "internalType": "uint256",
          "name": "dependencyId",
          "type": "uint256"
        },
        {
          "internalType": "string",
          "name": "dependencyName",
          "type": "string"
        },
        {
          "internalType": "string",
          "name": "dependencyAddress",
          "type": "string"
        },
        {
          "internalType": "string",
          "name": "dependencyRelationship",
          "type": "string"
        },
        {
          "internalType": "uint256",
          "name": "contactNumber",
          "type": "uint256"
        }
      ],
      "stateMutability": "view",
      "type": "function"
    },
    {
      "inputs": [
        {
          "internalType": "uint256",
          "name": "",
          "type": "uint256"
        }
      ],
      "name": "idToMedication",
      "outputs": [
        {
          "internalType": "uint256",
          "name": "medicationId",
          "type": "uint256"
        },
        {
          "internalType": "string",
          "name": "medicationName",
          "type": "string"
        },
        {
          "internalType": "string",
          "name": "dosage",
          "type": "string"
        },
        {
          "internalType": "uint256",
          "name": "price",
          "type": "uint256"
        }
      ],
      "stateMutability": "view",
      "type": "function"
    },
    {
      "inputs": [
        {
          "internalType": "uint256",
          "name": "",
          "type": "uint256"
        }
      ],
      "name": "medicationIdToBool",
      "outputs": [
        {
          "internalType": "bool",
          "name": "",
          "type": "bool"
        }
      ],
      "stateMutability": "view",
      "type": "function"
    },
    {
      "inputs": [
        {
          "internalType": "string",
          "name": "_name",
          "type": "string"
        },
        {
          "internalType": "string",
          "name": "_specialty",
          "type": "string"
        },
        {
          "internalType": "string",
          "name": "_workplace",
          "type": "string"
        }
      ],
      "name": "registerNewDoctor",
      "outputs": [],
      "stateMutability": "nonpayable",
      "type": "function"
    },
    {
      "inputs": [
        {
          "internalType": "string",
          "name": "_name",
          "type": "string"
        },
        {
          "internalType": "enum PatientHealthRecord.Gender",
          "name": "_gender",
          "type": "uint8"
        },
        {
          "internalType": "uint8",
          "name": "_age",
          "type": "uint8"
        }
      ],
      "name": "registerNewPatient",
      "outputs": [],
      "stateMutability": "nonpayable",
      "type": "function"
    },
    {
      "inputs": [
        {
          "internalType": "uint8",
          "name": "_age",
          "type": "uint8"
        }
      ],
      "name": "updateMyAge",
      "outputs": [],
      "stateMutability": "nonpayable",
      "type": "function"
    },
    {
      "inputs": [
        {
          "internalType": "address",
          "name": "",
          "type": "address"
        }
      ],
      "name": "verifiedDoctor",
      "outputs": [
        {
          "internalType": "bool",
          "name": "",
          "type": "bool"
        }
      ],
      "stateMutability": "view",
      "type": "function"
    },
    {
      "inputs": [],
      "name": "viewListOfDoctors",
      "outputs": [
        {
          "components": [
            {
              "internalType": "uint256",
              "name": "doctorID",
              "type": "uint256"
            },
            {
              "internalType": "string",
              "name": "doctorName",
              "type": "string"
            },
            {
              "internalType": "string",
              "name": "specialty",
              "type": "string"
            },
            {
              "internalType": "string",
              "name": "workplace",
              "type": "string"
            }
          ],
          "internalType": "struct PatientHealthRecord.Doctor[]",
          "name": "",
          "type": "tuple[]"
        }
      ],
      "stateMutability": "view",
      "type": "function"
    },
    {
      "inputs": [],
      "name": "viewListofDependencies",
      "outputs": [
        {
          "components": [
            {
              "internalType": "uint256",
              "name": "dependencyId",
              "type": "uint256"
            },
            {
              "internalType": "string",
              "name": "dependencyName",
              "type": "string"
            },
            {
              "internalType": "string",
              "name": "dependencyAddress",
              "type": "string"
            },
            {
              "internalType": "string",
              "name": "dependencyRelationship",
              "type": "string"
            },
            {
              "internalType": "uint256",
              "name": "contactNumber",
              "type": "uint256"
            }
          ],
          "internalType": "struct PatientHealthRecord.Dependency[]",
          "name": "",
          "type": "tuple[]"
        }
      ],
      "stateMutability": "view",
      "type": "function"
    },
    {
      "inputs": [],
      "name": "viewListofMedications",
      "outputs": [
        {
          "components": [
            {
              "internalType": "uint256",
              "name": "medicationId",
              "type": "uint256"
            },
            {
              "internalType": "string",
              "name": "medicationName",
              "type": "string"
            },
            {
              "internalType": "string",
              "name": "dosage",
              "type": "string"
            },
            {
              "internalType": "uint256",
              "name": "price",
              "type": "uint256"
            }
          ],
          "internalType": "struct PatientHealthRecord.Medication[]",
          "name": "",
          "type": "tuple[]"
        }
      ],
      "stateMutability": "view",
      "type": "function"
    },
    {
      "inputs": [],
      "name": "viewMyRecords",
      "outputs": [
        {
          "components": [
            {
              "internalType": "uint256",
              "name": "patientID",
              "type": "uint256"
            },
            {
              "internalType": "string",
              "name": "patientName",
              "type": "string"
            },
            {
              "internalType": "enum PatientHealthRecord.Gender",
              "name": "patientGender",
              "type": "uint8"
            },
            {
              "internalType": "uint8",
              "name": "patientAge",
              "type": "uint8"
            },
            {
              "internalType": "string[]",
              "name": "conditions",
              "type": "string[]"
            },
            {
              "components": [
                {
                  "internalType": "uint256",
                  "name": "medicationId",
                  "type": "uint256"
                },
                {
                  "internalType": "string",
                  "name": "medicationName",
                  "type": "string"
                },
                {
                  "internalType": "string",
                  "name": "dosage",
                  "type": "string"
                },
                {
                  "internalType": "uint256",
                  "name": "price",
                  "type": "uint256"
                }
              ],
              "internalType": "struct PatientHealthRecord.Medication[]",
              "name": "prescriptions",
              "type": "tuple[]"
            },
            {
              "components": [
                {
                  "internalType": "uint256",
                  "name": "dependencyId",
                  "type": "uint256"
                },
                {
                  "internalType": "string",
                  "name": "dependencyName",
                  "type": "string"
                },
                {
                  "internalType": "string",
                  "name": "dependencyAddress",
                  "type": "string"
                },
                {
                  "internalType": "string",
                  "name": "dependencyRelationship",
                  "type": "string"
                },
                {
                  "internalType": "uint256",
                  "name": "contactNumber",
                  "type": "uint256"
                }
              ],
              "internalType": "struct PatientHealthRecord.Dependency[]",
              "name": "dependencies",
              "type": "tuple[]"
            }
          ],
          "internalType": "struct PatientHealthRecord.Patient",
          "name": "",
          "type": "tuple"
        }
      ],
      "stateMutability": "view",
      "type": "function"
    },
    {
      "inputs": [
        {
          "internalType": "uint256",
          "name": "_patientID",
          "type": "uint256"
        }
      ],
      "name": "viewPatientRecords",
      "outputs": [
        {
          "components": [
            {
              "internalType": "uint256",
              "name": "patientID",
              "type": "uint256"
            },
            {
              "internalType": "string",
              "name": "patientName",
              "type": "string"
            },
            {
              "internalType": "enum PatientHealthRecord.Gender",
              "name": "patientGender",
              "type": "uint8"
            },
            {
              "internalType": "uint8",
              "name": "patientAge",
              "type": "uint8"
            },
            {
              "internalType": "string[]",
              "name": "conditions",
              "type": "string[]"
            },
            {
              "components": [
                {
                  "internalType": "uint256",
                  "name": "medicationId",
                  "type": "uint256"
                },
                {
                  "internalType": "string",
                  "name": "medicationName",
                  "type": "string"
                },
                {
                  "internalType": "string",
                  "name": "dosage",
                  "type": "string"
                },
                {
                  "internalType": "uint256",
                  "name": "price",
                  "type": "uint256"
                }
              ],
              "internalType": "struct PatientHealthRecord.Medication[]",
              "name": "prescriptions",
              "type": "tuple[]"
            },
            {
              "components": [
                {
                  "internalType": "uint256",
                  "name": "dependencyId",
                  "type": "uint256"
                },
                {
                  "internalType": "string",
                  "name": "dependencyName",
                  "type": "string"
                },
                {
                  "internalType": "string",
                  "name": "dependencyAddress",
                  "type": "string"
                },
                {
                  "internalType": "string",
                  "name": "dependencyRelationship",
                  "type": "string"
                },
                {
                  "internalType": "uint256",
                  "name": "contactNumber",
                  "type": "uint256"
                }
              ],
              "internalType": "struct PatientHealthRecord.Dependency[]",
              "name": "dependencies",
              "type": "tuple[]"
            }
          ],
          "internalType": "struct PatientHealthRecord.Patient",
          "name": "",
          "type": "tuple"
        }
      ],
      "stateMutability": "view",
      "type": "function"
    }
  ],
  "bytecode": "0x608060405260016000556001805534801561001957600080fd5b50613a2c806100296000396000f3fe608060405234801561001057600080fd5b506004361061014d5760003560e01c806346216098116100c3578063827219bb1161007c578063827219bb1461031f5780638a63bd181461033f5780638c691a4b146103545780638f33295d1461035c578063ad86ac831461037f578063b3799fe31461039657600080fd5b8063462160981461029d5780634f5bdf1c146102b0578063549fc2e0146102c35780635de931e4146102d65780637883d4a2146102e95780637f18e263146102fc57600080fd5b80631e29a19f116101155780631e29a19f146101fd5780632bccdbf314610210578063360a108f146102305780633b6d5b8c146102455780634162aa6d1461026557806344f6fe6f1461028857600080fd5b80630134234e1461015257806305a71ab41461017f5780630ec785a4146101b2578063168901c7146101d5578063181f4976146101ea575b600080fd5b610165610160366004612e07565b61039f565b604051610176959493929190612e66565b60405180910390f35b6101a261018d366004612e07565b600e6020526000908152604090205460ff1681565b6040519015158152602001610176565b6101c56101c0366004612eb8565b610566565b6040516101769493929190612ee8565b6101e86101e3366004612fa0565b610727565b005b6101e86101f8366004613005565b610969565b6101e861020b366004613027565b610b1a565b61022361021e3660046130d2565b610de0565b60405161017691906130ed565b610238610e7a565b60405161017691906131ac565b610258610253366004612e07565b6110d8565b604051610176919061321a565b6101a2610273366004612eb8565b60076020526000908152604090205460ff1681565b610290611352565b604051610176919061322d565b6101e86102ab36600461328f565b61159d565b6101e86102be366004613329565b61172c565b6101e86102d1366004613344565b6117b1565b6101e86102e43660046133c6565b611a10565b6101e86102f7366004612e07565b611b00565b61030f61030a366004612e07565b611c08565b6040516101769493929190613412565b61033261032d366004612e07565b611d41565b6040516101769190613531565b6103476123d3565b60405161017691906135f0565b610332612596565b6101a261036a366004612e07565b60106020526000908152604090205460ff1681565b61038860015481565b604051908152602001610176565b61038860005481565b600f60205260009081526040902080546001820180549192916103c190613603565b80601f01602080910402602001604051908101604052809291908181526020018280546103ed90613603565b801561043a5780601f1061040f5761010080835404028352916020019161043a565b820191906000526020600020905b81548152906001019060200180831161041d57829003601f168201915b50505050509080600201805461044f90613603565b80601f016020809104026020016040519081016040528092919081815260200182805461047b90613603565b80156104c85780601f1061049d576101008083540402835291602001916104c8565b820191906000526020600020905b8154815290600101906020018083116104ab57829003601f168201915b5050505050908060030180546104dd90613603565b80601f016020809104026020016040519081016040528092919081815260200182805461050990613603565b80156105565780601f1061052b57610100808354040283529160200191610556565b820191906000526020600020905b81548152906001019060200180831161053957829003601f168201915b5050505050908060040154905085565b6009602052600090815260409020805460018201805491929161058890613603565b80601f01602080910402602001604051908101604052809291908181526020018280546105b490613603565b80156106015780601f106105d657610100808354040283529160200191610601565b820191906000526020600020905b8154815290600101906020018083116105e457829003601f168201915b50505050509080600201805461061690613603565b80601f016020809104026020016040519081016040528092919081815260200182805461064290613603565b801561068f5780601f106106645761010080835404028352916020019161068f565b820191906000526020600020905b81548152906001019060200180831161067257829003601f168201915b5050505050908060030180546106a490613603565b80601f01602080910402602001604051908101604052809291908181526020018280546106d090613603565b801561071d5780601f106106f25761010080835404028352916020019161071d565b820191906000526020600020905b81548152906001019060200180831161070057829003601f168201915b5050505050905084565b8060ff16600081116107545760405162461bcd60e51b815260040161074b90613637565b60405180910390fd5b3360009081526006602052604090205460ff16156107b45760405162461bcd60e51b815260206004820152601f60248201527f50617469656e742068617320616c726561647920726567697374657265642100604482015260640161074b565b33600090815260086020526040812090548155600181016107d68688836136e8565b5060028101805485919060ff1916600183818111156107f7576107f761344f565b021790555060028101805460ff85166101000261ff0019909116179055600080548152600a6020526040812080546001600160a01b03191633179055600380546001818101835591909252825460069092027fc2575a0e9e593c00f959f8c92f12db2869c3395a3b0502d05e2516446f71f85b81019283558392917fc2575a0e9e593c00f959f8c92f12db2869c3395a3b0502d05e2516446f71f85c909101906108a3908401826137a3565b50600282810154908201805460ff9092169160ff1916600183818111156108cc576108cc61344f565b0217905550600282810154908201805461ff0019166101009283900460ff16909202919091179055600380830180546109089284019190612ba3565b506004828101805461091d9284019190612bfb565b50600582810180546109329284019190612c81565b5050336000908152600660205260408120805460ff19166001179055805491508061095c8361387a565b9190505550505050505050565b3360009081526007602052604090205460ff16151560011461099d5760405162461bcd60e51b815260040161074b906138a1565b336000908152600c60209081526040808320858452600a8352818420546001600160a01b03168452909152902054829060ff166109ec5760405162461bcd60e51b815260040161074b906138c8565b8260008111610a0d5760405162461bcd60e51b815260040161074b90613637565b8260008111610a2e5760405162461bcd60e51b815260040161074b90613637565b6000848152600e602052604090205460ff161515600114610a915760405162461bcd60e51b815260206004820152601a60248201527f4d656469636174696f6e206e6f74207265676973746572656421000000000000604482015260640161074b565b6000858152600a60209081526040808320546001600160a01b0316835260088252808320878452600d83529083206004808301805460018181018355918752949095208254949091020192835590929091829181810190610af4908401826137a3565b50600281810190610b07908401826137a3565b5060039182015491015550505050505050565b3360009081526006602052604090205460ff161515600114610b4e5760405162461bcd60e51b815260040161074b9061391c565b8760008111610b6f5760405162461bcd60e51b815260040161074b90613637565b8160008111610b905760405162461bcd60e51b815260040161074b90613637565b60008a81526010602052604090205460ff1615610bef5760405162461bcd60e51b815260206004820152601f60248201527f446570656e64656e63792020616c726561647920726567697374657265642100604482015260640161074b565b60008a8152601060209081526040808320805460ff19166001179055805160a0810182528d81528151601f8d018490048402810184019092528b82529182810191908d908d9081908401838280828437600092019190915250505090825250604080516020601f8c018190048102820181019092528a815291810191908b908b9081908401838280828437600092019190915250505090825250604080516020601f8a0181900481028201810190925288815291810191908990899081908401838280828437600092018290525093855250505060209182018790528d8152600f825260409020825181559082015191925082916001820190610cf29082613944565b5060408201516002820190610d079082613944565b5060608201516003820190610d1c9082613944565b506080919091015160049091015560028054600181018255600091909152815160059091027f405787fa12a823e0f2b7631cc41b3ba8828b3321ca811111fa75cd3aa3bb5ace810191825560208301518392917f405787fa12a823e0f2b7631cc41b3ba8828b3321ca811111fa75cd3aa3bb5acf0190610d9c9082613944565b5060408201516002820190610db19082613944565b5060608201516003820190610dc69082613944565b506080820151816004015550505050505050505050505050565b60116020526000908152604090208054610df990613603565b80601f0160208091040260200160405190810160405280929190818152602001828054610e2590613603565b8015610e725780601f10610e4757610100808354040283529160200191610e72565b820191906000526020600020905b815481529060010190602001808311610e5557829003601f168201915b505050505081565b3360009081526006602052604090205460609060ff161515600114610eb15760405162461bcd60e51b815260040161074b9061391c565b6002805480602002602001604051908101604052809291908181526020016000905b828210156110cf57838290600052602060002090600502016040518060a001604052908160008201548152602001600182018054610f1090613603565b80601f0160208091040260200160405190810160405280929190818152602001828054610f3c90613603565b8015610f895780601f10610f5e57610100808354040283529160200191610f89565b820191906000526020600020905b815481529060010190602001808311610f6c57829003601f168201915b50505050508152602001600282018054610fa290613603565b80601f0160208091040260200160405190810160405280929190818152602001828054610fce90613603565b801561101b5780601f10610ff05761010080835404028352916020019161101b565b820191906000526020600020905b815481529060010190602001808311610ffe57829003601f168201915b5050505050815260200160038201805461103490613603565b80601f016020809104026020016040519081016040528092919081815260200182805461106090613603565b80156110ad5780601f10611082576101008083540402835291602001916110ad565b820191906000526020600020905b81548152906001019060200180831161109057829003601f168201915b5050505050815260200160048201548152505081526020019060010190610ed3565b50505050905090565b6111036040518060800160405280600081526020016060815260200160608152602001606081525090565b81600081116111245760405162461bcd60e51b815260040161074b90613637565b3360009081526006602052604090205460ff1615156001146111585760405162461bcd60e51b815260040161074b9061391c565b6000838152600b60209081526040808320546001600160a01b031680845260098352928190208151608081019092528054825260018101805492939192918401916111a290613603565b80601f01602080910402602001604051908101604052809291908181526020018280546111ce90613603565b801561121b5780601f106111f05761010080835404028352916020019161121b565b820191906000526020600020905b8154815290600101906020018083116111fe57829003601f168201915b5050505050815260200160028201805461123490613603565b80601f016020809104026020016040519081016040528092919081815260200182805461126090613603565b80156112ad5780601f10611282576101008083540402835291602001916112ad565b820191906000526020600020905b81548152906001019060200180831161129057829003601f168201915b505050505081526020016003820180546112c690613603565b80601f01602080910402602001604051908101604052809291908181526020018280546112f290613603565b801561133f5780601f106113145761010080835404028352916020019161133f565b820191906000526020600020905b81548152906001019060200180831161132257829003601f168201915b5050505050815250509250505b50919050565b3360009081526006602052604090205460609060ff1615156001146113895760405162461bcd60e51b815260040161074b9061391c565b6004805480602002602001604051908101604052809291908181526020016000905b828210156110cf5783829060005260206000209060040201604051806080016040529081600082015481526020016001820180546113e890613603565b80601f016020809104026020016040519081016040528092919081815260200182805461141490613603565b80156114615780601f1061143657610100808354040283529160200191611461565b820191906000526020600020905b81548152906001019060200180831161144457829003601f168201915b5050505050815260200160028201805461147a90613603565b80601f01602080910402602001604051908101604052809291908181526020018280546114a690613603565b80156114f35780601f106114c8576101008083540402835291602001916114f3565b820191906000526020600020905b8154815290600101906020018083116114d657829003601f168201915b5050505050815260200160038201805461150c90613603565b80601f016020809104026020016040519081016040528092919081815260200182805461153890613603565b80156115855780601f1061155a57610100808354040283529160200191611585565b820191906000526020600020905b81548152906001019060200180831161156857829003601f168201915b505050505081525050815260200190600101906113ab565b3360009081526007602052604090205460ff16156115fd5760405162461bcd60e51b815260206004820152601e60248201527f446f63746f722068617320616c72656164792072656769737465726564210000604482015260640161074b565b336000908152600760209081526040808320805460ff191660019081179091556009909252909120815481559081016116378789836136e8565b50600281016116478587836136e8565b50600381016116578385836136e8565b50600480546001818101835560008390528354919092027f8a35acfbc15ff81a39ae7d344fd709f28e8600b4aa8c65c6b64bfe7fe36bd19b810191825583927f8a35acfbc15ff81a39ae7d344fd709f28e8600b4aa8c65c6b64bfe7fe36bd19c909101906116c7908401826137a3565b506002818101906116da908401826137a3565b506003818101906116ed908401826137a3565b5050600180546000908152600b6020526040812080546001600160a01b031916331790558154925061171e8361387a565b919050555050505050505050565b8060ff16600081116117505760405162461bcd60e51b815260040161074b90613637565b3360009081526006602052604090205460ff1615156001146117845760405162461bcd60e51b815260040161074b9061391c565b50336000908152600860205260409020600201805460ff9092166101000261ff0019909216919091179055565b3360009081526007602052604090205460ff1615156001146117e55760405162461bcd60e51b815260040161074b906138a1565b85600081116118065760405162461bcd60e51b815260040161074b90613637565b81600081116118275760405162461bcd60e51b815260040161074b90613637565b6000888152600e602052604090205460ff16156118865760405162461bcd60e51b815260206004820152601e60248201527f4d656469636174696f6e20616c72656164792072656769737465726564210000604482015260640161074b565b6000888152600e60209081526040808320805460ff1916600117905580516080810182528b81528151601f8b018490048402810184019092528982529182810191908b908b9081908401838280828437600092019190915250505090825250604080516020601f8a0181900481028201810190925288815291810191908990899081908401838280828437600092018290525093855250505060209182018790528b8152600d82526040902082518155908201519192508291600182019061194e9082613944565b50604082015160028201906119639082613944565b506060919091015160039091015560058054600181018255600091909152815160049091027f036b6384b5eca791c62761152d0c79bb0604c104a5fb6f4eb0703f3154bb3db0810191825560208301518392917f036b6384b5eca791c62761152d0c79bb0604c104a5fb6f4eb0703f3154bb3db101906119e39082613944565b50604082015160028201906119f89082613944565b50606082015181600301555050505050505050505050565b3360009081526007602052604090205460ff161515600114611a445760405162461bcd60e51b815260040161074b906138a1565b336000908152600c60209081526040808320848452600a8352818420546001600160a01b03168452909152902054819060ff16611a935760405162461bcd60e51b815260040161074b906138c8565b8160008111611ab45760405162461bcd60e51b815260040161074b90613637565b6000838152600a60209081526040808320546001600160a01b03168084526008835290832060030180546001810182559084529190922001611af78688836136e8565b50505050505050565b8060008111611b215760405162461bcd60e51b815260040161074b90613637565b3360009081526006602052604090205460ff161515600114611b555760405162461bcd60e51b815260040161074b9061391c565b6000828152600b60209081526040808320546001600160a01b03168352600790915290205460ff161515600114611bce5760405162461bcd60e51b815260206004820152601e60248201527f5468697320646f63746f72206973206e6f742072656769737465726564210000604482015260640161074b565b506000908152600b60209081526040808320546001600160a01b03168352600c82528083203384529091529020805460ff19166001179055565b600d6020526000908152604090208054600182018054919291611c2a90613603565b80601f0160208091040260200160405190810160405280929190818152602001828054611c5690613603565b8015611ca35780601f10611c7857610100808354040283529160200191611ca3565b820191906000526020600020905b815481529060010190602001808311611c8657829003601f168201915b505050505090806002018054611cb890613603565b80601f0160208091040260200160405190810160405280929190818152602001828054611ce490613603565b8015611d315780601f10611d0657610100808354040283529160200191611d31565b820191906000526020600020905b815481529060010190602001808311611d1457829003601f168201915b5050505050908060030154905084565b611d846040805160e08101825260008082526060602083015290918201908152602001600060ff1681526020016060815260200160608152602001606081525090565b3360009081526007602052604090205460ff161515600114611db85760405162461bcd60e51b815260040161074b906138a1565b336000908152600c60209081526040808320858452600a8352818420546001600160a01b03168452909152902054829060ff16611e075760405162461bcd60e51b815260040161074b906138c8565b8260008111611e285760405162461bcd60e51b815260040161074b90613637565b6000848152600a60209081526040808320546001600160a01b031683526008825291829020825160e08101909352805483526001810180549192840191611e6e90613603565b80601f0160208091040260200160405190810160405280929190818152602001828054611e9a90613603565b8015611ee75780601f10611ebc57610100808354040283529160200191611ee7565b820191906000526020600020905b815481529060010190602001808311611eca57829003601f168201915b5050509183525050600282015460209091019060ff166001811115611f0e57611f0e61344f565b6001811115611f1f57611f1f61344f565b81526002820154610100900460ff16602080830191909152600383018054604080518285028101850182528281529401939260009084015b82821015612003578382906000526020600020018054611f7690613603565b80601f0160208091040260200160405190810160405280929190818152602001828054611fa290613603565b8015611fef5780601f10611fc457610100808354040283529160200191611fef565b820191906000526020600020905b815481529060010190602001808311611fd257829003601f168201915b505050505081526020019060010190611f57565b50505050815260200160048201805480602002602001604051908101604052809291908181526020016000905b8282101561219a57838290600052602060002090600402016040518060800160405290816000820154815260200160018201805461206d90613603565b80601f016020809104026020016040519081016040528092919081815260200182805461209990613603565b80156120e65780601f106120bb576101008083540402835291602001916120e6565b820191906000526020600020905b8154815290600101906020018083116120c957829003601f168201915b505050505081526020016002820180546120ff90613603565b80601f016020809104026020016040519081016040528092919081815260200182805461212b90613603565b80156121785780601f1061214d57610100808354040283529160200191612178565b820191906000526020600020905b81548152906001019060200180831161215b57829003601f168201915b5050505050815260200160038201548152505081526020019060010190612030565b50505050815260200160058201805480602002602001604051908101604052809291908181526020016000905b828210156123c357838290600052602060002090600502016040518060a00160405290816000820154815260200160018201805461220490613603565b80601f016020809104026020016040519081016040528092919081815260200182805461223090613603565b801561227d5780601f106122525761010080835404028352916020019161227d565b820191906000526020600020905b81548152906001019060200180831161226057829003601f168201915b5050505050815260200160028201805461229690613603565b80601f01602080910402602001604051908101604052809291908181526020018280546122c290613603565b801561230f5780601f106122e45761010080835404028352916020019161230f565b820191906000526020600020905b8154815290600101906020018083116122f257829003601f168201915b5050505050815260200160038201805461232890613603565b80601f016020809104026020016040519081016040528092919081815260200182805461235490613603565b80156123a15780601f10612376576101008083540402835291602001916123a1565b820191906000526020600020905b81548152906001019060200180831161238457829003601f168201915b50505050508152602001600482015481525050815260200190600101906121c7565b5050509152509095945050505050565b3360009081526007602052604090205460609060ff16151560011461240a5760405162461bcd60e51b815260040161074b906138a1565b6005805480602002602001604051908101604052809291908181526020016000905b828210156110cf57838290600052602060002090600402016040518060800160405290816000820154815260200160018201805461246990613603565b80601f016020809104026020016040519081016040528092919081815260200182805461249590613603565b80156124e25780601f106124b7576101008083540402835291602001916124e2565b820191906000526020600020905b8154815290600101906020018083116124c557829003601f168201915b505050505081526020016002820180546124fb90613603565b80601f016020809104026020016040519081016040528092919081815260200182805461252790613603565b80156125745780601f1061254957610100808354040283529160200191612574565b820191906000526020600020905b81548152906001019060200180831161255757829003601f168201915b505050505081526020016003820154815250508152602001906001019061242c565b6125d96040805160e08101825260008082526060602083015290918201908152602001600060ff1681526020016060815260200160608152602001606081525090565b3360009081526006602052604090205460ff16151560011461260d5760405162461bcd60e51b815260040161074b9061391c565b33600090815260086020908152604091829020825160e0810190935280548352600181018054919284019161264190613603565b80601f016020809104026020016040519081016040528092919081815260200182805461266d90613603565b80156126ba5780601f1061268f576101008083540402835291602001916126ba565b820191906000526020600020905b81548152906001019060200180831161269d57829003601f168201915b5050509183525050600282015460209091019060ff1660018111156126e1576126e161344f565b60018111156126f2576126f261344f565b81526002820154610100900460ff16602080830191909152600383018054604080518285028101850182528281529401939260009084015b828210156127d657838290600052602060002001805461274990613603565b80601f016020809104026020016040519081016040528092919081815260200182805461277590613603565b80156127c25780601f10612797576101008083540402835291602001916127c2565b820191906000526020600020905b8154815290600101906020018083116127a557829003601f168201915b50505050508152602001906001019061272a565b50505050815260200160048201805480602002602001604051908101604052809291908181526020016000905b8282101561296d57838290600052602060002090600402016040518060800160405290816000820154815260200160018201805461284090613603565b80601f016020809104026020016040519081016040528092919081815260200182805461286c90613603565b80156128b95780601f1061288e576101008083540402835291602001916128b9565b820191906000526020600020905b81548152906001019060200180831161289c57829003601f168201915b505050505081526020016002820180546128d290613603565b80601f01602080910402602001604051908101604052809291908181526020018280546128fe90613603565b801561294b5780601f106129205761010080835404028352916020019161294b565b820191906000526020600020905b81548152906001019060200180831161292e57829003601f168201915b5050505050815260200160038201548152505081526020019060010190612803565b50505050815260200160058201805480602002602001604051908101604052809291908181526020016000905b82821015612b9657838290600052602060002090600502016040518060a0016040529081600082015481526020016001820180546129d790613603565b80601f0160208091040260200160405190810160405280929190818152602001828054612a0390613603565b8015612a505780601f10612a2557610100808354040283529160200191612a50565b820191906000526020600020905b815481529060010190602001808311612a3357829003601f168201915b50505050508152602001600282018054612a6990613603565b80601f0160208091040260200160405190810160405280929190818152602001828054612a9590613603565b8015612ae25780601f10612ab757610100808354040283529160200191612ae2565b820191906000526020600020905b815481529060010190602001808311612ac557829003601f168201915b50505050508152602001600382018054612afb90613603565b80601f0160208091040260200160405190810160405280929190818152602001828054612b2790613603565b8015612b745780601f10612b4957610100808354040283529160200191612b74565b820191906000526020600020905b815481529060010190602001808311612b5757829003601f168201915b505050505081526020016004820154815250508152602001906001019061299a565b5050505081525050905090565b828054828255906000526020600020908101928215612beb5760005260206000209182015b82811115612beb5781612bdb84826137a3565b5091600101919060010190612bc8565b50612bf7929150612d1a565b5090565b828054828255906000526020600020906004028101928215612c755760005260206000209160040282015b82811115612c7557825482558282600180820190612c46908401826137a3565b50600281810190612c59908401826137a3565b5060038201548160030155505091600401919060040190612c26565b50612bf7929150612d37565b828054828255906000526020600020906005028101928215612d0e5760005260206000209160050282015b82811115612d0e57825482558282600180820190612ccc908401826137a3565b50600281810190612cdf908401826137a3565b50600381810190612cf2908401826137a3565b5060048201548160040155505091600501919060050190612cac565b50612bf7929150612d6f565b80821115612bf7576000612d2e8282612db5565b50600101612d1a565b80821115612bf7576000808255612d516001830182612db5565b612d5f600283016000612db5565b5060006003820155600401612d37565b80821115612bf7576000808255612d896001830182612db5565b612d97600283016000612db5565b612da5600383016000612db5565b5060006004820155600501612d6f565b508054612dc190613603565b6000825580601f10612dd1575050565b601f016020900490600052602060002090810190612def9190612df2565b50565b5b80821115612bf75760008155600101612df3565b600060208284031215612e1957600080fd5b5035919050565b6000815180845260005b81811015612e4657602081850181015186830182015201612e2a565b506000602082860101526020601f19601f83011685010191505092915050565b85815260a060208201526000612e7f60a0830187612e20565b8281036040840152612e918187612e20565b90508281036060840152612ea58186612e20565b9150508260808301529695505050505050565b600060208284031215612eca57600080fd5b81356001600160a01b0381168114612ee157600080fd5b9392505050565b848152608060208201526000612f016080830186612e20565b8281036040840152612f138186612e20565b90508281036060840152612f278185612e20565b979650505050505050565b60008083601f840112612f4457600080fd5b50813567ffffffffffffffff811115612f5c57600080fd5b602083019150836020828501011115612f7457600080fd5b9250929050565b803560028110612f8a57600080fd5b919050565b803560ff81168114612f8a57600080fd5b60008060008060608587031215612fb657600080fd5b843567ffffffffffffffff811115612fcd57600080fd5b612fd987828801612f32565b9095509350612fec905060208601612f7b565b9150612ffa60408601612f8f565b905092959194509250565b6000806040838503121561301857600080fd5b50508035926020909101359150565b60008060008060008060008060a0898b03121561304357600080fd5b88359750602089013567ffffffffffffffff8082111561306257600080fd5b61306e8c838d01612f32565b909950975060408b013591508082111561308757600080fd5b6130938c838d01612f32565b909750955060608b01359150808211156130ac57600080fd5b506130b98b828c01612f32565b999c989b50969995989497949560800135949350505050565b6000602082840312156130e457600080fd5b612ee182612f7b565b602081526000612ee16020830184612e20565b600081518084526020808501808196508360051b8101915082860160005b8581101561319f578284038952815160a08151865286820151818888015261314882880182612e20565b915050604080830151878303828901526131628382612e20565b925050506060808301518783038289015261317d8382612e20565b608094850151989094019790975250509885019893509084019060010161311e565b5091979650505050505050565b602081526000612ee16020830184613100565b8051825260006020820151608060208501526131de6080850182612e20565b9050604083015184820360408601526131f78282612e20565b915050606083015184820360608601526132118282612e20565b95945050505050565b602081526000612ee160208301846131bf565b6000602080830181845280855180835260408601915060408160051b870101925083870160005b8281101561328257603f198886030184526132708583516131bf565b94509285019290850190600101613254565b5092979650505050505050565b600080600080600080606087890312156132a857600080fd5b863567ffffffffffffffff808211156132c057600080fd5b6132cc8a838b01612f32565b909850965060208901359150808211156132e557600080fd5b6132f18a838b01612f32565b9096509450604089013591508082111561330a57600080fd5b5061331789828a01612f32565b979a9699509497509295939492505050565b60006020828403121561333b57600080fd5b612ee182612f8f565b6000806000806000806080878903121561335d57600080fd5b86359550602087013567ffffffffffffffff8082111561337c57600080fd5b6133888a838b01612f32565b909750955060408901359150808211156133a157600080fd5b506133ae89828a01612f32565b979a9699509497949695606090950135949350505050565b6000806000604084860312156133db57600080fd5b833567ffffffffffffffff8111156133f257600080fd5b6133fe86828701612f32565b909790965060209590950135949350505050565b84815260806020820152600061342b6080830186612e20565b828103604084015261343d8186612e20565b91505082606083015295945050505050565b634e487b7160e01b600052602160045260246000fd5b600081518084526020808501808196508360051b8101915082860160005b8581101561319f57828403895261349b848351612e20565b98850198935090840190600101613483565b600081518084526020808501808196508360051b8101915082860160005b8581101561319f57828403895281516080815186528682015181888801526134f582880182612e20565b9150506040808301518783038289015261350f8382612e20565b60609485015198909401979097525050988501989350908401906001016134cb565b60208152815160208201526000602083015160e06040840152613558610100840182612e20565b905060408401516002811061357d57634e487b7160e01b600052602160045260246000fd5b806060850152506060840151613598608085018260ff169052565b506080840151601f19808584030160a08601526135b58383613465565b925060a08601519150808584030160c08601526135d283836134ad565b925060c08601519150808584030160e0860152506132118282613100565b602081526000612ee160208301846134ad565b600181811c9082168061361757607f821691505b60208210810361134c57634e487b7160e01b600052602260045260246000fd5b6020808252601d908201527f56616c7565206d7573742062652067726561746572207468616e203021000000604082015260600190565b634e487b7160e01b600052604160045260246000fd5b601f8211156136ce57600081815260208120601f850160051c810160208610156136ab5750805b601f850160051c820191505b818110156136ca578281556001016136b7565b5050505b505050565b600019600383901b1c191660019190911b1790565b67ffffffffffffffff8311156137005761370061366e565b6137148361370e8354613603565b83613684565b6000601f84116001811461374257600085156137305750838201355b61373a86826136d3565b84555061379c565b600083815260209020601f19861690835b828110156137735786850135825560209485019460019092019101613753565b50868210156137905760001960f88860031b161c19848701351681555b505060018560011b0183555b5050505050565b8181036137ae575050565b6137b88254613603565b67ffffffffffffffff8111156137d0576137d061366e565b6137e4816137de8454613603565b84613684565b6000601f82116001811461381257600083156138005750848201545b61380a84826136d3565b85555061379c565b600085815260209020601f19841690600086815260209020845b8381101561384c578286015482556001958601959091019060200161382c565b508583101561386a5781850154600019600388901b60f8161c191681555b5050505050600190811b01905550565b60006001820161389a57634e487b7160e01b600052601160045260246000fd5b5060010190565b6020808252600d908201526c4e6f74206120646f63746f722160981b604082015260600190565b60208082526034908201527f446f63746f7220646f6573206e6f74206861766520617070726f76616c20746f60408201527320747265617420746869732070617469656e742160601b606082015260800190565b6020808252600e908201526d4e6f7420612070617469656e742160901b604082015260600190565b815167ffffffffffffffff81111561395e5761395e61366e565b61396c816137de8454613603565b602080601f83116001811461399b57600084156139895750858301515b61399385826136d3565b8655506136ca565b600085815260208120601f198616915b828110156139ca578886015182559484019460019091019084016139ab565b508582101561386a57939096015160001960f8600387901b161c19169092555050600190811b0190555056fea264697066735822122007f55cf00459b5a5c2e87e1ea820f724518133a6c702396a437017e1232d361b64736f6c63430008110033",
  "linkReferences": {},
  "deployedLinkReferences": {}
}