{
  "_format": "hh-sol-artifact-1",
  "contractName": "PatientHealthRecord",
  "sourceName": "contracts/PatientHealthRecord.sol",
  "abi": [
    {
      "inputs": [
        {
          "internalType": "string",
          "name": "_newCondition",
          "type": "string"
        },
        {
          "internalType": "uint256",
          "name": "patientID",
          "type": "uint256"
        }
      ],
      "name": "addCondition",
      "outputs": [],
      "stateMutability": "nonpayable",
      "type": "function"
    },
    {
      "inputs": [
        {
          "internalType": "uint256",
          "name": "_dependencyID",
          "type": "uint256"
        },
        {
          "internalType": "string",
          "name": "_dependencyName",
          "type": "string"
        },
        {
          "internalType": "string",
          "name": "_dependencyRelationship",
          "type": "string"
        },
        {
          "internalType": "string",
          "name": "_dependencyAddress",
          "type": "string"
        },
        {
          "internalType": "uint256",
          "name": "_contactNumber",
          "type": "uint256"
        }
      ],
      "name": "addDependency",
      "outputs": [],
      "stateMutability": "nonpayable",
      "type": "function"
    },
    {
      "inputs": [
        {
          "internalType": "uint256",
          "name": "_medicationID",
          "type": "uint256"
        },
        {
          "internalType": "string",
          "name": "_medicationName",
          "type": "string"
        },
        {
          "internalType": "string",
          "name": "_dosage",
          "type": "string"
        },
        {
          "internalType": "uint256",
          "name": "_price",
          "type": "uint256"
        }
      ],
      "name": "addMedication",
      "outputs": [],
      "stateMutability": "nonpayable",
      "type": "function"
    },
    {
      "inputs": [
        {
          "internalType": "uint256",
          "name": "_patientID",
          "type": "uint256"
        },
        {
          "internalType": "uint256",
          "name": "_medicineID",
          "type": "uint256"
        }
      ],
      "name": "addPrescription",
      "outputs": [],
      "stateMutability": "nonpayable",
      "type": "function"
    },
    {
      "inputs": [
        {
          "internalType": "address",
          "name": "",
          "type": "address"
        }
      ],
      "name": "addressToDoctor",
      "outputs": [
        {
          "internalType": "uint256",
          "name": "doctorID",
          "type": "uint256"
        },
        {
          "internalType": "string",
          "name": "doctorName",
          "type": "string"
        },
        {
          "internalType": "string",
          "name": "specialty",
          "type": "string"
        },
        {
          "internalType": "string",
          "name": "workplace",
          "type": "string"
        }
      ],
      "stateMutability": "view",
      "type": "function"
    },
    {
      "inputs": [
        {
          "internalType": "uint256",
          "name": "_doctorID",
          "type": "uint256"
        }
      ],
      "name": "approveDoctor",
      "outputs": [],
      "stateMutability": "nonpayable",
      "type": "function"
    },
    {
      "inputs": [],
      "name": "counterDoctorID",
      "outputs": [
        {
          "internalType": "uint256",
          "name": "",
          "type": "uint256"
        }
      ],
      "stateMutability": "view",
      "type": "function"
    },
    {
      "inputs": [],
      "name": "counterPatientID",
      "outputs": [
        {
          "internalType": "uint256",
          "name": "",
          "type": "uint256"
        }
      ],
      "stateMutability": "view",
      "type": "function"
    },
    {
      "inputs": [
        {
          "internalType": "uint256",
          "name": "",
          "type": "uint256"
        }
      ],
      "name": "dependencyIdToBool",
      "outputs": [
        {
          "internalType": "bool",
          "name": "",
          "type": "bool"
        }
      ],
      "stateMutability": "view",
      "type": "function"
    },
    {
      "inputs": [
        {
          "internalType": "uint256",
          "name": "_doctorId",
          "type": "uint256"
        }
      ],
      "name": "getDoctorDetails",
      "outputs": [
        {
          "components": [
            {
              "internalType": "uint256",
              "name": "doctorID",
              "type": "uint256"
            },
            {
              "internalType": "string",
              "name": "doctorName",
              "type": "string"
            },
            {
              "internalType": "string",
              "name": "specialty",
              "type": "string"
            },
            {
              "internalType": "string",
              "name": "workplace",
              "type": "string"
            }
          ],
          "internalType": "struct PatientHealthRecord.Doctor",
          "name": "",
          "type": "tuple"
        }
      ],
      "stateMutability": "view",
      "type": "function"
    },
    {
      "inputs": [
        {
          "internalType": "uint256",
          "name": "",
          "type": "uint256"
        }
      ],
      "name": "idToDependency",
      "outputs": [
        {
          "internalType": "uint256",
          "name": "dependencyId",
          "type": "uint256"
        },
        {
          "internalType": "string",
          "name": "dependencyName",
          "type": "string"
        },
        {
          "internalType": "string",
          "name": "dependencyAddress",
          "type": "string"
        },
        {
          "internalType": "string",
          "name": "dependencyRelationship",
          "type": "string"
        },
        {
          "internalType": "uint256",
          "name": "contactNumber",
          "type": "uint256"
        }
      ],
      "stateMutability": "view",
      "type": "function"
    },
    {
      "inputs": [
        {
          "internalType": "uint256",
          "name": "",
          "type": "uint256"
        }
      ],
      "name": "idToMedication",
      "outputs": [
        {
          "internalType": "uint256",
          "name": "medicationId",
          "type": "uint256"
        },
        {
          "internalType": "string",
          "name": "medicationName",
          "type": "string"
        },
        {
          "internalType": "string",
          "name": "dosage",
          "type": "string"
        },
        {
          "internalType": "uint256",
          "name": "price",
          "type": "uint256"
        }
      ],
      "stateMutability": "view",
      "type": "function"
    },
    {
      "inputs": [
        {
          "internalType": "uint256",
          "name": "",
          "type": "uint256"
        }
      ],
      "name": "medicationIdToBool",
      "outputs": [
        {
          "internalType": "bool",
          "name": "",
          "type": "bool"
        }
      ],
      "stateMutability": "view",
      "type": "function"
    },
    {
      "inputs": [
        {
          "internalType": "string",
          "name": "_name",
          "type": "string"
        },
        {
          "internalType": "string",
          "name": "_specialty",
          "type": "string"
        },
        {
          "internalType": "string",
          "name": "_workplace",
          "type": "string"
        }
      ],
      "name": "registerNewDoctor",
      "outputs": [],
      "stateMutability": "nonpayable",
      "type": "function"
    },
    {
      "inputs": [
        {
          "internalType": "string",
          "name": "_name",
          "type": "string"
        },
        {
          "internalType": "string",
          "name": "_gender",
          "type": "string"
        },
        {
          "internalType": "uint8",
          "name": "_age",
          "type": "uint8"
        }
      ],
      "name": "registerNewPatient",
      "outputs": [],
      "stateMutability": "nonpayable",
      "type": "function"
    },
    {
      "inputs": [
        {
          "internalType": "uint8",
          "name": "_age",
          "type": "uint8"
        }
      ],
      "name": "updateMyAge",
      "outputs": [],
      "stateMutability": "nonpayable",
      "type": "function"
    },
    {
      "inputs": [
        {
          "internalType": "address",
          "name": "",
          "type": "address"
        }
      ],
      "name": "verifiedDoctor",
      "outputs": [
        {
          "internalType": "bool",
          "name": "",
          "type": "bool"
        }
      ],
      "stateMutability": "view",
      "type": "function"
    },
    {
      "inputs": [],
      "name": "viewListOfDoctors",
      "outputs": [
        {
          "components": [
            {
              "internalType": "uint256",
              "name": "doctorID",
              "type": "uint256"
            },
            {
              "internalType": "string",
              "name": "doctorName",
              "type": "string"
            },
            {
              "internalType": "string",
              "name": "specialty",
              "type": "string"
            },
            {
              "internalType": "string",
              "name": "workplace",
              "type": "string"
            }
          ],
          "internalType": "struct PatientHealthRecord.Doctor[]",
          "name": "",
          "type": "tuple[]"
        }
      ],
      "stateMutability": "view",
      "type": "function"
    },
    {
      "inputs": [],
      "name": "viewListofDependencies",
      "outputs": [
        {
          "components": [
            {
              "internalType": "uint256",
              "name": "dependencyId",
              "type": "uint256"
            },
            {
              "internalType": "string",
              "name": "dependencyName",
              "type": "string"
            },
            {
              "internalType": "string",
              "name": "dependencyAddress",
              "type": "string"
            },
            {
              "internalType": "string",
              "name": "dependencyRelationship",
              "type": "string"
            },
            {
              "internalType": "uint256",
              "name": "contactNumber",
              "type": "uint256"
            }
          ],
          "internalType": "struct PatientHealthRecord.Dependency[]",
          "name": "",
          "type": "tuple[]"
        }
      ],
      "stateMutability": "view",
      "type": "function"
    },
    {
      "inputs": [],
      "name": "viewListofMedications",
      "outputs": [
        {
          "components": [
            {
              "internalType": "uint256",
              "name": "medicationId",
              "type": "uint256"
            },
            {
              "internalType": "string",
              "name": "medicationName",
              "type": "string"
            },
            {
              "internalType": "string",
              "name": "dosage",
              "type": "string"
            },
            {
              "internalType": "uint256",
              "name": "price",
              "type": "uint256"
            }
          ],
          "internalType": "struct PatientHealthRecord.Medication[]",
          "name": "",
          "type": "tuple[]"
        }
      ],
      "stateMutability": "view",
      "type": "function"
    },
    {
      "inputs": [],
      "name": "viewMyRecords",
      "outputs": [
        {
          "components": [
            {
              "internalType": "uint256",
              "name": "patientID",
              "type": "uint256"
            },
            {
              "internalType": "string",
              "name": "patientName",
              "type": "string"
            },
            {
              "internalType": "string",
              "name": "patientGender",
              "type": "string"
            },
            {
              "internalType": "uint8",
              "name": "patientAge",
              "type": "uint8"
            },
            {
              "internalType": "string[]",
              "name": "conditions",
              "type": "string[]"
            },
            {
              "components": [
                {
                  "internalType": "uint256",
                  "name": "medicationId",
                  "type": "uint256"
                },
                {
                  "internalType": "string",
                  "name": "medicationName",
                  "type": "string"
                },
                {
                  "internalType": "string",
                  "name": "dosage",
                  "type": "string"
                },
                {
                  "internalType": "uint256",
                  "name": "price",
                  "type": "uint256"
                }
              ],
              "internalType": "struct PatientHealthRecord.Medication[]",
              "name": "prescriptions",
              "type": "tuple[]"
            },
            {
              "components": [
                {
                  "internalType": "uint256",
                  "name": "dependencyId",
                  "type": "uint256"
                },
                {
                  "internalType": "string",
                  "name": "dependencyName",
                  "type": "string"
                },
                {
                  "internalType": "string",
                  "name": "dependencyAddress",
                  "type": "string"
                },
                {
                  "internalType": "string",
                  "name": "dependencyRelationship",
                  "type": "string"
                },
                {
                  "internalType": "uint256",
                  "name": "contactNumber",
                  "type": "uint256"
                }
              ],
              "internalType": "struct PatientHealthRecord.Dependency[]",
              "name": "dependencies",
              "type": "tuple[]"
            }
          ],
          "internalType": "struct PatientHealthRecord.Patient",
          "name": "",
          "type": "tuple"
        }
      ],
      "stateMutability": "view",
      "type": "function"
    },
    {
      "inputs": [
        {
          "internalType": "uint256",
          "name": "_patientID",
          "type": "uint256"
        }
      ],
      "name": "viewPatientRecords",
      "outputs": [
        {
          "components": [
            {
              "internalType": "uint256",
              "name": "patientID",
              "type": "uint256"
            },
            {
              "internalType": "string",
              "name": "patientName",
              "type": "string"
            },
            {
              "internalType": "string",
              "name": "patientGender",
              "type": "string"
            },
            {
              "internalType": "uint8",
              "name": "patientAge",
              "type": "uint8"
            },
            {
              "internalType": "string[]",
              "name": "conditions",
              "type": "string[]"
            },
            {
              "components": [
                {
                  "internalType": "uint256",
                  "name": "medicationId",
                  "type": "uint256"
                },
                {
                  "internalType": "string",
                  "name": "medicationName",
                  "type": "string"
                },
                {
                  "internalType": "string",
                  "name": "dosage",
                  "type": "string"
                },
                {
                  "internalType": "uint256",
                  "name": "price",
                  "type": "uint256"
                }
              ],
              "internalType": "struct PatientHealthRecord.Medication[]",
              "name": "prescriptions",
              "type": "tuple[]"
            },
            {
              "components": [
                {
                  "internalType": "uint256",
                  "name": "dependencyId",
                  "type": "uint256"
                },
                {
                  "internalType": "string",
                  "name": "dependencyName",
                  "type": "string"
                },
                {
                  "internalType": "string",
                  "name": "dependencyAddress",
                  "type": "string"
                },
                {
                  "internalType": "string",
                  "name": "dependencyRelationship",
                  "type": "string"
                },
                {
                  "internalType": "uint256",
                  "name": "contactNumber",
                  "type": "uint256"
                }
              ],
              "internalType": "struct PatientHealthRecord.Dependency[]",
              "name": "dependencies",
              "type": "tuple[]"
            }
          ],
          "internalType": "struct PatientHealthRecord.Patient",
          "name": "",
          "type": "tuple"
        }
      ],
      "stateMutability": "view",
      "type": "function"
    }
  ],
  "bytecode": "0x608060405260016000556001805534801561001957600080fd5b50613a28806100296000396000f3fe608060405234801561001057600080fd5b50600436106101425760003560e01c8063549fc2e0116100b85780638a63bd181161007c5780638a63bd18146103015780638c691a4b146103165780638f33295d1461031e578063ad86ac8314610341578063b3799fe314610358578063b485e8711461036157600080fd5b8063549fc2e0146102855780635de931e4146102985780637883d4a2146102ab5780637f18e263146102be578063827219bb146102e157600080fd5b8063360a108f1161010a578063360a108f146101f25780633b6d5b8c146102075780634162aa6d1461022757806344f6fe6f1461024a578063462160981461025f5780634f5bdf1c1461027257600080fd5b80630134234e1461014757806305a71ab4146101745780630ec785a4146101a7578063181f4976146101ca5780631e29a19f146101df575b600080fd5b61015a610155366004612da6565b610374565b60405161016b959493929190612e05565b60405180910390f35b610197610182366004612da6565b600e6020526000908152604090205460ff1681565b604051901515815260200161016b565b6101ba6101b5366004612e57565b61053b565b60405161016b9493929190612e87565b6101dd6101d8366004612ed1565b6106fc565b005b6101dd6101ed366004612f3c565b6108b6565b6101fa610b7c565b60405161016b9190612fe7565b61021a610215366004612da6565b610dda565b60405161016b91906130f9565b610197610235366004612e57565b60076020526000908152604090205460ff1681565b610252611054565b60405161016b919061310c565b6101dd61026d36600461316e565b61129f565b6101dd61028036600461321e565b61142e565b6101dd610293366004613239565b6114ad565b6101dd6102a63660046132bb565b61170c565b6101dd6102b9366004612da6565b6117fc565b6102d16102cc366004612da6565b611904565b60405161016b9493929190613307565b6102f46102ef366004612da6565b611a3d565b60405161016b91906134bc565b61030961212a565b60405161016b9190613566565b6102f46122ed565b61019761032c366004612da6565b60106020526000908152604090205460ff1681565b61034a60015481565b60405190815260200161016b565b61034a60005481565b6101dd61036f366004613579565b612955565b600f6020526000908152604090208054600182018054919291610396906135fa565b80601f01602080910402602001604051908101604052809291908181526020018280546103c2906135fa565b801561040f5780601f106103e45761010080835404028352916020019161040f565b820191906000526020600020905b8154815290600101906020018083116103f257829003601f168201915b505050505090806002018054610424906135fa565b80601f0160208091040260200160405190810160405280929190818152602001828054610450906135fa565b801561049d5780601f106104725761010080835404028352916020019161049d565b820191906000526020600020905b81548152906001019060200180831161048057829003601f168201915b5050505050908060030180546104b2906135fa565b80601f01602080910402602001604051908101604052809291908181526020018280546104de906135fa565b801561052b5780601f106105005761010080835404028352916020019161052b565b820191906000526020600020905b81548152906001019060200180831161050e57829003601f168201915b5050505050908060040154905085565b6009602052600090815260409020805460018201805491929161055d906135fa565b80601f0160208091040260200160405190810160405280929190818152602001828054610589906135fa565b80156105d65780601f106105ab576101008083540402835291602001916105d6565b820191906000526020600020905b8154815290600101906020018083116105b957829003601f168201915b5050505050908060020180546105eb906135fa565b80601f0160208091040260200160405190810160405280929190818152602001828054610617906135fa565b80156106645780601f1061063957610100808354040283529160200191610664565b820191906000526020600020905b81548152906001019060200180831161064757829003601f168201915b505050505090806003018054610679906135fa565b80601f01602080910402602001604051908101604052809291908181526020018280546106a5906135fa565b80156106f25780601f106106c7576101008083540402835291602001916106f2565b820191906000526020600020905b8154815290600101906020018083116106d557829003601f168201915b5050505050905084565b3360009081526007602052604090205460ff1615156001146107395760405162461bcd60e51b81526004016107309061362e565b60405180910390fd5b336000908152600c60209081526040808320858452600a8352818420546001600160a01b03168452909152902054829060ff166107885760405162461bcd60e51b815260040161073090613655565b82600081116107a95760405162461bcd60e51b8152600401610730906136a9565b82600081116107ca5760405162461bcd60e51b8152600401610730906136a9565b6000848152600e602052604090205460ff16151560011461082d5760405162461bcd60e51b815260206004820152601a60248201527f4d656469636174696f6e206e6f742072656769737465726564210000000000006044820152606401610730565b6000858152600a60209081526040808320546001600160a01b0316835260088252808320878452600d835290832060058201805460018181018355918652939094208154600490940201928355909290918291818101906108909084018261375a565b506002818101906108a39084018261375a565b5060039182015491015550505050505050565b3360009081526006602052604090205460ff1615156001146108ea5760405162461bcd60e51b815260040161073090613835565b876000811161090b5760405162461bcd60e51b8152600401610730906136a9565b816000811161092c5760405162461bcd60e51b8152600401610730906136a9565b60008a81526010602052604090205460ff161561098b5760405162461bcd60e51b815260206004820152601f60248201527f446570656e64656e63792020616c7265616479207265676973746572656421006044820152606401610730565b60008a8152601060209081526040808320805460ff19166001179055805160a0810182528d81528151601f8d018490048402810184019092528b82529182810191908d908d9081908401838280828437600092019190915250505090825250604080516020601f8c018190048102820181019092528a815291810191908b908b9081908401838280828437600092019190915250505090825250604080516020601f8a0181900481028201810190925288815291810191908990899081908401838280828437600092018290525093855250505060209182018790528d8152600f825260409020825181559082015191925082916001820190610a8e908261385d565b5060408201516002820190610aa3908261385d565b5060608201516003820190610ab8908261385d565b506080919091015160049091015560028054600181018255600091909152815160059091027f405787fa12a823e0f2b7631cc41b3ba8828b3321ca811111fa75cd3aa3bb5ace810191825560208301518392917f405787fa12a823e0f2b7631cc41b3ba8828b3321ca811111fa75cd3aa3bb5acf0190610b38908261385d565b5060408201516002820190610b4d908261385d565b5060608201516003820190610b62908261385d565b506080820151816004015550505050505050505050505050565b3360009081526006602052604090205460609060ff161515600114610bb35760405162461bcd60e51b815260040161073090613835565b6002805480602002602001604051908101604052809291908181526020016000905b82821015610dd157838290600052602060002090600502016040518060a001604052908160008201548152602001600182018054610c12906135fa565b80601f0160208091040260200160405190810160405280929190818152602001828054610c3e906135fa565b8015610c8b5780601f10610c6057610100808354040283529160200191610c8b565b820191906000526020600020905b815481529060010190602001808311610c6e57829003601f168201915b50505050508152602001600282018054610ca4906135fa565b80601f0160208091040260200160405190810160405280929190818152602001828054610cd0906135fa565b8015610d1d5780601f10610cf257610100808354040283529160200191610d1d565b820191906000526020600020905b815481529060010190602001808311610d0057829003601f168201915b50505050508152602001600382018054610d36906135fa565b80601f0160208091040260200160405190810160405280929190818152602001828054610d62906135fa565b8015610daf5780601f10610d8457610100808354040283529160200191610daf565b820191906000526020600020905b815481529060010190602001808311610d9257829003601f168201915b5050505050815260200160048201548152505081526020019060010190610bd5565b50505050905090565b610e056040518060800160405280600081526020016060815260200160608152602001606081525090565b8160008111610e265760405162461bcd60e51b8152600401610730906136a9565b3360009081526006602052604090205460ff161515600114610e5a5760405162461bcd60e51b815260040161073090613835565b6000838152600b60209081526040808320546001600160a01b03168084526009835292819020815160808101909252805482526001810180549293919291840191610ea4906135fa565b80601f0160208091040260200160405190810160405280929190818152602001828054610ed0906135fa565b8015610f1d5780601f10610ef257610100808354040283529160200191610f1d565b820191906000526020600020905b815481529060010190602001808311610f0057829003601f168201915b50505050508152602001600282018054610f36906135fa565b80601f0160208091040260200160405190810160405280929190818152602001828054610f62906135fa565b8015610faf5780601f10610f8457610100808354040283529160200191610faf565b820191906000526020600020905b815481529060010190602001808311610f9257829003601f168201915b50505050508152602001600382018054610fc8906135fa565b80601f0160208091040260200160405190810160405280929190818152602001828054610ff4906135fa565b80156110415780601f1061101657610100808354040283529160200191611041565b820191906000526020600020905b81548152906001019060200180831161102457829003601f168201915b5050505050815250509250505b50919050565b3360009081526006602052604090205460609060ff16151560011461108b5760405162461bcd60e51b815260040161073090613835565b6004805480602002602001604051908101604052809291908181526020016000905b82821015610dd15783829060005260206000209060040201604051806080016040529081600082015481526020016001820180546110ea906135fa565b80601f0160208091040260200160405190810160405280929190818152602001828054611116906135fa565b80156111635780601f1061113857610100808354040283529160200191611163565b820191906000526020600020905b81548152906001019060200180831161114657829003601f168201915b5050505050815260200160028201805461117c906135fa565b80601f01602080910402602001604051908101604052809291908181526020018280546111a8906135fa565b80156111f55780601f106111ca576101008083540402835291602001916111f5565b820191906000526020600020905b8154815290600101906020018083116111d857829003601f168201915b5050505050815260200160038201805461120e906135fa565b80601f016020809104026020016040519081016040528092919081815260200182805461123a906135fa565b80156112875780601f1061125c57610100808354040283529160200191611287565b820191906000526020600020905b81548152906001019060200180831161126a57829003601f168201915b505050505081525050815260200190600101906110ad565b3360009081526007602052604090205460ff16156112ff5760405162461bcd60e51b815260206004820152601e60248201527f446f63746f722068617320616c726561647920726567697374657265642100006044820152606401610730565b336000908152600760209081526040808320805460ff19166001908117909155600990925290912081548155908101611339878983613911565b5060028101611349858783613911565b5060038101611359838583613911565b50600480546001818101835560008390528354919092027f8a35acfbc15ff81a39ae7d344fd709f28e8600b4aa8c65c6b64bfe7fe36bd19b810191825583927f8a35acfbc15ff81a39ae7d344fd709f28e8600b4aa8c65c6b64bfe7fe36bd19c909101906113c99084018261375a565b506002818101906113dc9084018261375a565b506003818101906113ef9084018261375a565b5050600180546000908152600b6020526040812080546001600160a01b0319163317905581549250611420836139cb565b919050555050505050505050565b8060ff16600081116114525760405162461bcd60e51b8152600401610730906136a9565b3360009081526006602052604090205460ff1615156001146114865760405162461bcd60e51b815260040161073090613835565b50336000908152600860205260409020600301805460ff191660ff92909216919091179055565b3360009081526007602052604090205460ff1615156001146114e15760405162461bcd60e51b81526004016107309061362e565b85600081116115025760405162461bcd60e51b8152600401610730906136a9565b81600081116115235760405162461bcd60e51b8152600401610730906136a9565b6000888152600e602052604090205460ff16156115825760405162461bcd60e51b815260206004820152601e60248201527f4d656469636174696f6e20616c726561647920726567697374657265642100006044820152606401610730565b6000888152600e60209081526040808320805460ff1916600117905580516080810182528b81528151601f8b018490048402810184019092528982529182810191908b908b9081908401838280828437600092019190915250505090825250604080516020601f8a0181900481028201810190925288815291810191908990899081908401838280828437600092018290525093855250505060209182018790528b8152600d82526040902082518155908201519192508291600182019061164a908261385d565b506040820151600282019061165f908261385d565b506060919091015160039091015560058054600181018255600091909152815160049091027f036b6384b5eca791c62761152d0c79bb0604c104a5fb6f4eb0703f3154bb3db0810191825560208301518392917f036b6384b5eca791c62761152d0c79bb0604c104a5fb6f4eb0703f3154bb3db101906116df908261385d565b50604082015160028201906116f4908261385d565b50606082015181600301555050505050505050505050565b3360009081526007602052604090205460ff1615156001146117405760405162461bcd60e51b81526004016107309061362e565b336000908152600c60209081526040808320848452600a8352818420546001600160a01b03168452909152902054819060ff1661178f5760405162461bcd60e51b815260040161073090613655565b81600081116117b05760405162461bcd60e51b8152600401610730906136a9565b6000838152600a60209081526040808320546001600160a01b031680845260088352908320600401805460018101825590845291909220016117f3868883613911565b50505050505050565b806000811161181d5760405162461bcd60e51b8152600401610730906136a9565b3360009081526006602052604090205460ff1615156001146118515760405162461bcd60e51b815260040161073090613835565b6000828152600b60209081526040808320546001600160a01b03168352600790915290205460ff1615156001146118ca5760405162461bcd60e51b815260206004820152601e60248201527f5468697320646f63746f72206973206e6f7420726567697374657265642100006044820152606401610730565b506000908152600b60209081526040808320546001600160a01b03168352600c82528083203384529091529020805460ff19166001179055565b600d6020526000908152604090208054600182018054919291611926906135fa565b80601f0160208091040260200160405190810160405280929190818152602001828054611952906135fa565b801561199f5780601f106119745761010080835404028352916020019161199f565b820191906000526020600020905b81548152906001019060200180831161198257829003601f168201915b5050505050908060020180546119b4906135fa565b80601f01602080910402602001604051908101604052809291908181526020018280546119e0906135fa565b8015611a2d5780601f10611a0257610100808354040283529160200191611a2d565b820191906000526020600020905b815481529060010190602001808311611a1057829003601f168201915b5050505050908060030154905084565b611a806040518060e00160405280600081526020016060815260200160608152602001600060ff1681526020016060815260200160608152602001606081525090565b3360009081526007602052604090205460ff161515600114611ab45760405162461bcd60e51b81526004016107309061362e565b336000908152600c60209081526040808320858452600a8352818420546001600160a01b03168452909152902054829060ff16611b035760405162461bcd60e51b815260040161073090613655565b8260008111611b245760405162461bcd60e51b8152600401610730906136a9565b6000848152600a60209081526040808320546001600160a01b031683526008825291829020825160e08101909352805483526001810180549192840191611b6a906135fa565b80601f0160208091040260200160405190810160405280929190818152602001828054611b96906135fa565b8015611be35780601f10611bb857610100808354040283529160200191611be3565b820191906000526020600020905b815481529060010190602001808311611bc657829003601f168201915b50505050508152602001600282018054611bfc906135fa565b80601f0160208091040260200160405190810160405280929190818152602001828054611c28906135fa565b8015611c755780601f10611c4a57610100808354040283529160200191611c75565b820191906000526020600020905b815481529060010190602001808311611c5857829003601f168201915b5050509183525050600382015460ff16602080830191909152600483018054604080518285028101850182528281529401939260009084015b82821015611d5a578382906000526020600020018054611ccd906135fa565b80601f0160208091040260200160405190810160405280929190818152602001828054611cf9906135fa565b8015611d465780601f10611d1b57610100808354040283529160200191611d46565b820191906000526020600020905b815481529060010190602001808311611d2957829003601f168201915b505050505081526020019060010190611cae565b50505050815260200160058201805480602002602001604051908101604052809291908181526020016000905b82821015611ef1578382906000526020600020906004020160405180608001604052908160008201548152602001600182018054611dc4906135fa565b80601f0160208091040260200160405190810160405280929190818152602001828054611df0906135fa565b8015611e3d5780601f10611e1257610100808354040283529160200191611e3d565b820191906000526020600020905b815481529060010190602001808311611e2057829003601f168201915b50505050508152602001600282018054611e56906135fa565b80601f0160208091040260200160405190810160405280929190818152602001828054611e82906135fa565b8015611ecf5780601f10611ea457610100808354040283529160200191611ecf565b820191906000526020600020905b815481529060010190602001808311611eb257829003601f168201915b5050505050815260200160038201548152505081526020019060010190611d87565b50505050815260200160068201805480602002602001604051908101604052809291908181526020016000905b8282101561211a57838290600052602060002090600502016040518060a001604052908160008201548152602001600182018054611f5b906135fa565b80601f0160208091040260200160405190810160405280929190818152602001828054611f87906135fa565b8015611fd45780601f10611fa957610100808354040283529160200191611fd4565b820191906000526020600020905b815481529060010190602001808311611fb757829003601f168201915b50505050508152602001600282018054611fed906135fa565b80601f0160208091040260200160405190810160405280929190818152602001828054612019906135fa565b80156120665780601f1061203b57610100808354040283529160200191612066565b820191906000526020600020905b81548152906001019060200180831161204957829003601f168201915b5050505050815260200160038201805461207f906135fa565b80601f01602080910402602001604051908101604052809291908181526020018280546120ab906135fa565b80156120f85780601f106120cd576101008083540402835291602001916120f8565b820191906000526020600020905b8154815290600101906020018083116120db57829003601f168201915b5050505050815260200160048201548152505081526020019060010190611f1e565b5050509152509095945050505050565b3360009081526007602052604090205460609060ff1615156001146121615760405162461bcd60e51b81526004016107309061362e565b6005805480602002602001604051908101604052809291908181526020016000905b82821015610dd15783829060005260206000209060040201604051806080016040529081600082015481526020016001820180546121c0906135fa565b80601f01602080910402602001604051908101604052809291908181526020018280546121ec906135fa565b80156122395780601f1061220e57610100808354040283529160200191612239565b820191906000526020600020905b81548152906001019060200180831161221c57829003601f168201915b50505050508152602001600282018054612252906135fa565b80601f016020809104026020016040519081016040528092919081815260200182805461227e906135fa565b80156122cb5780601f106122a0576101008083540402835291602001916122cb565b820191906000526020600020905b8154815290600101906020018083116122ae57829003601f168201915b5050505050815260200160038201548152505081526020019060010190612183565b6123306040518060e00160405280600081526020016060815260200160608152602001600060ff1681526020016060815260200160608152602001606081525090565b3360009081526006602052604090205460ff1615156001146123645760405162461bcd60e51b815260040161073090613835565b33600090815260086020908152604091829020825160e08101909352805483526001810180549192840191612398906135fa565b80601f01602080910402602001604051908101604052809291908181526020018280546123c4906135fa565b80156124115780601f106123e657610100808354040283529160200191612411565b820191906000526020600020905b8154815290600101906020018083116123f457829003601f168201915b5050505050815260200160028201805461242a906135fa565b80601f0160208091040260200160405190810160405280929190818152602001828054612456906135fa565b80156124a35780601f10612478576101008083540402835291602001916124a3565b820191906000526020600020905b81548152906001019060200180831161248657829003601f168201915b5050509183525050600382015460ff16602080830191909152600483018054604080518285028101850182528281529401939260009084015b828210156125885783829060005260206000200180546124fb906135fa565b80601f0160208091040260200160405190810160405280929190818152602001828054612527906135fa565b80156125745780601f1061254957610100808354040283529160200191612574565b820191906000526020600020905b81548152906001019060200180831161255757829003601f168201915b5050505050815260200190600101906124dc565b50505050815260200160058201805480602002602001604051908101604052809291908181526020016000905b8282101561271f5783829060005260206000209060040201604051806080016040529081600082015481526020016001820180546125f2906135fa565b80601f016020809104026020016040519081016040528092919081815260200182805461261e906135fa565b801561266b5780601f106126405761010080835404028352916020019161266b565b820191906000526020600020905b81548152906001019060200180831161264e57829003601f168201915b50505050508152602001600282018054612684906135fa565b80601f01602080910402602001604051908101604052809291908181526020018280546126b0906135fa565b80156126fd5780601f106126d2576101008083540402835291602001916126fd565b820191906000526020600020905b8154815290600101906020018083116126e057829003601f168201915b50505050508152602001600382015481525050815260200190600101906125b5565b50505050815260200160068201805480602002602001604051908101604052809291908181526020016000905b8282101561294857838290600052602060002090600502016040518060a001604052908160008201548152602001600182018054612789906135fa565b80601f01602080910402602001604051908101604052809291908181526020018280546127b5906135fa565b80156128025780601f106127d757610100808354040283529160200191612802565b820191906000526020600020905b8154815290600101906020018083116127e557829003601f168201915b5050505050815260200160028201805461281b906135fa565b80601f0160208091040260200160405190810160405280929190818152602001828054612847906135fa565b80156128945780601f1061286957610100808354040283529160200191612894565b820191906000526020600020905b81548152906001019060200180831161287757829003601f168201915b505050505081526020016003820180546128ad906135fa565b80601f01602080910402602001604051908101604052809291908181526020018280546128d9906135fa565b80156129265780601f106128fb57610100808354040283529160200191612926565b820191906000526020600020905b81548152906001019060200180831161290957829003601f168201915b505050505081526020016004820154815250508152602001906001019061274c565b5050505081525050905090565b8060ff16600081116129795760405162461bcd60e51b8152600401610730906136a9565b3360009081526006602052604090205460ff16156129d95760405162461bcd60e51b815260206004820152601f60248201527f50617469656e742068617320616c7265616479207265676973746572656421006044820152606401610730565b33600090815260086020526040812090548155600181016129fb878983613911565b5060028101612a0b858783613911565b506003808201805460ff861660ff19909116179055600080548152600a6020526040812080546001600160a01b0319163317905581546001818101845592909152825460079091027fc2575a0e9e593c00f959f8c92f12db2869c3395a3b0502d05e2516446f71f85b810191825583927fc2575a0e9e593c00f959f8c92f12db2869c3395a3b0502d05e2516446f71f85c90910190612aac9084018261375a565b50600281810190612abf9084018261375a565b50600382810154908201805460ff191660ff90921691909117905560048083018054612aee9284019190612b42565b5060058281018054612b039284019190612b9a565b5060068281018054612b189284019190612c20565b5050336000908152600660205260408120805460ff191660011790558054915080611420836139cb565b828054828255906000526020600020908101928215612b8a5760005260206000209182015b82811115612b8a5781612b7a848261375a565b5091600101919060010190612b67565b50612b96929150612cb9565b5090565b828054828255906000526020600020906004028101928215612c145760005260206000209160040282015b82811115612c1457825482558282600180820190612be59084018261375a565b50600281810190612bf89084018261375a565b5060038201548160030155505091600401919060040190612bc5565b50612b96929150612cd6565b828054828255906000526020600020906005028101928215612cad5760005260206000209160050282015b82811115612cad57825482558282600180820190612c6b9084018261375a565b50600281810190612c7e9084018261375a565b50600381810190612c919084018261375a565b5060048201548160040155505091600501919060050190612c4b565b50612b96929150612d0e565b80821115612b96576000612ccd8282612d54565b50600101612cb9565b80821115612b96576000808255612cf06001830182612d54565b612cfe600283016000612d54565b5060006003820155600401612cd6565b80821115612b96576000808255612d286001830182612d54565b612d36600283016000612d54565b612d44600383016000612d54565b5060006004820155600501612d0e565b508054612d60906135fa565b6000825580601f10612d70575050565b601f016020900490600052602060002090810190612d8e9190612d91565b50565b5b80821115612b965760008155600101612d92565b600060208284031215612db857600080fd5b5035919050565b6000815180845260005b81811015612de557602081850181015186830182015201612dc9565b506000602082860101526020601f19601f83011685010191505092915050565b85815260a060208201526000612e1e60a0830187612dbf565b8281036040840152612e308187612dbf565b90508281036060840152612e448186612dbf565b9150508260808301529695505050505050565b600060208284031215612e6957600080fd5b81356001600160a01b0381168114612e8057600080fd5b9392505050565b848152608060208201526000612ea06080830186612dbf565b8281036040840152612eb28186612dbf565b90508281036060840152612ec68185612dbf565b979650505050505050565b60008060408385031215612ee457600080fd5b50508035926020909101359150565b60008083601f840112612f0557600080fd5b50813567ffffffffffffffff811115612f1d57600080fd5b602083019150836020828501011115612f3557600080fd5b9250929050565b60008060008060008060008060a0898b031215612f5857600080fd5b88359750602089013567ffffffffffffffff80821115612f7757600080fd5b612f838c838d01612ef3565b909950975060408b0135915080821115612f9c57600080fd5b612fa88c838d01612ef3565b909750955060608b0135915080821115612fc157600080fd5b50612fce8b828c01612ef3565b999c989b50969995989497949560800135949350505050565b60006020808301818452808551808352604092508286019150828160051b87010184880160005b8381101561309057603f19898403018552815160a08151855288820151818a87015261303c82870182612dbf565b91505087820151858203898701526130548282612dbf565b9150506060808301518683038288015261306e8382612dbf565b608094850151979094019690965250509487019492509086019060010161300e565b509098975050505050505050565b8051825260006020820151608060208501526130bd6080850182612dbf565b9050604083015184820360408601526130d68282612dbf565b915050606083015184820360608601526130f08282612dbf565b95945050505050565b602081526000612e80602083018461309e565b6000602080830181845280855180835260408601915060408160051b870101925083870160005b8281101561316157603f1988860301845261314f85835161309e565b94509285019290850190600101613133565b5092979650505050505050565b6000806000806000806060878903121561318757600080fd5b863567ffffffffffffffff8082111561319f57600080fd5b6131ab8a838b01612ef3565b909850965060208901359150808211156131c457600080fd5b6131d08a838b01612ef3565b909650945060408901359150808211156131e957600080fd5b506131f689828a01612ef3565b979a9699509497509295939492505050565b803560ff8116811461321957600080fd5b919050565b60006020828403121561323057600080fd5b612e8082613208565b6000806000806000806080878903121561325257600080fd5b86359550602087013567ffffffffffffffff8082111561327157600080fd5b61327d8a838b01612ef3565b9097509550604089013591508082111561329657600080fd5b506132a389828a01612ef3565b979a9699509497949695606090950135949350505050565b6000806000604084860312156132d057600080fd5b833567ffffffffffffffff8111156132e757600080fd5b6132f386828701612ef3565b909790965060209590950135949350505050565b8481526080602082015260006133206080830186612dbf565b82810360408401526133328186612dbf565b91505082606083015295945050505050565b600081518084526020808501808196508360051b8101915082860160005b8581101561338c57828403895261337a848351612dbf565b98850198935090840190600101613362565b5091979650505050505050565b600081518084526020808501808196508360051b8101915082860160005b8581101561338c57828403895281516080815186528682015181888801526133e182880182612dbf565b915050604080830151878303828901526133fb8382612dbf565b60609485015198909401979097525050988501989350908401906001016133b7565b600081518084526020808501808196508360051b8101915082860160005b8581101561338c578284038952815160a08151865286820151818888015261346582880182612dbf565b9150506040808301518783038289015261347f8382612dbf565b925050506060808301518783038289015261349a8382612dbf565b608094850151989094019790975250509885019893509084019060010161343b565b60208152815160208201526000602083015160e060408401526134e3610100840182612dbf565b90506040840151601f19808584030160608601526135018383612dbf565b925060ff606087015116608086015260808601519150808584030160a086015261352b8383613344565b925060a08601519150808584030160c08601526135488383613399565b925060c08601519150808584030160e0860152506130f0828261341d565b602081526000612e806020830184613399565b60008060008060006060868803121561359157600080fd5b853567ffffffffffffffff808211156135a957600080fd5b6135b589838a01612ef3565b909750955060208801359150808211156135ce57600080fd5b506135db88828901612ef3565b90945092506135ee905060408701613208565b90509295509295909350565b600181811c9082168061360e57607f821691505b60208210810361104e57634e487b7160e01b600052602260045260246000fd5b6020808252600d908201526c4e6f74206120646f63746f722160981b604082015260600190565b60208082526034908201527f446f63746f7220646f6573206e6f74206861766520617070726f76616c20746f60408201527320747265617420746869732070617469656e742160601b606082015260800190565b6020808252601d908201527f56616c7565206d7573742062652067726561746572207468616e203021000000604082015260600190565b634e487b7160e01b600052604160045260246000fd5b601f82111561374057600081815260208120601f850160051c8101602086101561371d5750805b601f850160051c820191505b8181101561373c57828155600101613729565b5050505b505050565b600019600383901b1c191660019190911b1790565b818103613765575050565b61376f82546135fa565b67ffffffffffffffff811115613787576137876136e0565b61379b8161379584546135fa565b846136f6565b6000601f8211600181146137c957600083156137b75750848201545b6137c18482613745565b85555061382e565b600085815260209020601f19841690600086815260209020845b8381101561380357828601548255600195860195909101906020016137e3565b50858310156138215781850154600019600388901b60f8161c191681555b50505060018360011b0184555b5050505050565b6020808252600e908201526d4e6f7420612070617469656e742160901b604082015260600190565b815167ffffffffffffffff811115613877576138776136e0565b6138858161379584546135fa565b602080601f8311600181146138b457600084156138a25750858301515b6138ac8582613745565b86555061373c565b600085815260208120601f198616915b828110156138e3578886015182559484019460019091019084016138c4565b50858210156139015787850151600019600388901b60f8161c191681555b5050505050600190811b01905550565b67ffffffffffffffff831115613929576139296136e0565b61393d8361393783546135fa565b836136f6565b6000601f84116001811461396b57600085156139595750838201355b6139638682613745565b84555061382e565b600083815260209020601f19861690835b8281101561399c578685013582556020948501946001909201910161397c565b50868210156139b95760001960f88860031b161c19848701351681555b505060018560011b0183555050505050565b6000600182016139eb57634e487b7160e01b600052601160045260246000fd5b506001019056fea2646970667358221220df971e0858c3b8a8ffa65c89e3e54fd016bdca032c8d42273919b80ef104c49364736f6c63430008110033",
  "linkReferences": {},
  "deployedLinkReferences": {}
}