{
    "_format": "hh-sol-artifact-1",
    "contractName": "PatientHealthRecord",
    "sourceName": "contracts/PatientHealthRecord.sol",
    "abi": [
        {
            "inputs": [
                {
                    "internalType": "string",
                    "name": "_newCaseSummary",
                    "type": "string"
                },
                {
                    "internalType": "uint256",
                    "name": "patientID",
                    "type": "uint256"
                }
            ],
            "name": "addCaseSummary",
            "outputs": [],
            "stateMutability": "nonpayable",
            "type": "function"
        },
        {
            "inputs": [
                {
                    "internalType": "uint256",
                    "name": "_dependencyID",
                    "type": "uint256"
                },
                {
                    "internalType": "string",
                    "name": "_dependencyName",
                    "type": "string"
                },
                {
                    "internalType": "string",
                    "name": "_dependencyRelationship",
                    "type": "string"
                },
                {
                    "internalType": "string",
                    "name": "_dependencyAddress",
                    "type": "string"
                },
                {
                    "internalType": "uint256",
                    "name": "_contactNumber",
                    "type": "uint256"
                }
            ],
            "name": "addDependency",
            "outputs": [],
            "stateMutability": "nonpayable",
            "type": "function"
        },
        {
            "inputs": [
                {
                    "internalType": "uint256",
                    "name": "_id",
                    "type": "uint256"
                },
                {
                    "internalType": "string",
                    "name": "_ipfsHash",
                    "type": "string"
                },
                {
                    "internalType": "string",
                    "name": "_title",
                    "type": "string"
                },
                {
                    "internalType": "string",
                    "name": "_description",
                    "type": "string"
                },
                {
                    "internalType": "uint256",
                    "name": "_patientID",
                    "type": "uint256"
                }
            ],
            "name": "addExaminationResult",
            "outputs": [],
            "stateMutability": "nonpayable",
            "type": "function"
        },
        {
            "inputs": [
                {
                    "internalType": "uint256",
                    "name": "_medicationID",
                    "type": "uint256"
                },
                {
                    "internalType": "string",
                    "name": "_medicationName",
                    "type": "string"
                },
                {
                    "internalType": "string",
                    "name": "_dosage",
                    "type": "string"
                },
                {
                    "internalType": "uint256",
                    "name": "_price",
                    "type": "uint256"
                }
            ],
            "name": "addMedication",
            "outputs": [],
            "stateMutability": "nonpayable",
            "type": "function"
        },
        {
            "inputs": [
                {
                    "internalType": "uint256",
                    "name": "_patientID",
                    "type": "uint256"
                },
                {
                    "internalType": "uint256",
                    "name": "_medicineID",
                    "type": "uint256"
                }
            ],
            "name": "addPrescription",
            "outputs": [],
            "stateMutability": "nonpayable",
            "type": "function"
        },
        {
            "inputs": [
                {
                    "internalType": "address",
                    "name": "",
                    "type": "address"
                }
            ],
            "name": "addressToDoctor",
            "outputs": [
                {
                    "internalType": "uint256",
                    "name": "doctorID",
                    "type": "uint256"
                },
                {
                    "internalType": "string",
                    "name": "doctorName",
                    "type": "string"
                },
                {
                    "internalType": "string",
                    "name": "specialty",
                    "type": "string"
                },
                {
                    "internalType": "string",
                    "name": "workplace",
                    "type": "string"
                }
            ],
            "stateMutability": "view",
            "type": "function"
        },
        {
            "inputs": [
                {
                    "internalType": "uint256",
                    "name": "_doctorID",
                    "type": "uint256"
                }
            ],
            "name": "approveDoctor",
            "outputs": [],
            "stateMutability": "nonpayable",
            "type": "function"
        },
        {
            "inputs": [],
            "name": "counterDoctorID",
            "outputs": [
                {
                    "internalType": "uint256",
                    "name": "",
                    "type": "uint256"
                }
            ],
            "stateMutability": "view",
            "type": "function"
        },
        {
            "inputs": [],
            "name": "counterPatientID",
            "outputs": [
                {
                    "internalType": "uint256",
                    "name": "",
                    "type": "uint256"
                }
            ],
            "stateMutability": "view",
            "type": "function"
        },
        {
            "inputs": [
                {
                    "internalType": "uint256",
                    "name": "",
                    "type": "uint256"
                }
            ],
            "name": "dependencyIdToBool",
            "outputs": [
                {
                    "internalType": "bool",
                    "name": "",
                    "type": "bool"
                }
            ],
            "stateMutability": "view",
            "type": "function"
        },
        {
            "inputs": [
                {
                    "internalType": "uint256",
                    "name": "",
                    "type": "uint256"
                }
            ],
            "name": "examinationResultIdToBool",
            "outputs": [
                {
                    "internalType": "bool",
                    "name": "",
                    "type": "bool"
                }
            ],
            "stateMutability": "view",
            "type": "function"
        },
        {
            "inputs": [
                {
                    "internalType": "uint256",
                    "name": "_doctorId",
                    "type": "uint256"
                }
            ],
            "name": "getDoctorDetails",
            "outputs": [
                {
                    "components": [
                        {
                            "internalType": "uint256",
                            "name": "doctorID",
                            "type": "uint256"
                        },
                        {
                            "internalType": "string",
                            "name": "doctorName",
                            "type": "string"
                        },
                        {
                            "internalType": "string",
                            "name": "specialty",
                            "type": "string"
                        },
                        {
                            "internalType": "string",
                            "name": "workplace",
                            "type": "string"
                        }
                    ],
                    "internalType": "struct PatientHealthRecord.Doctor",
                    "name": "",
                    "type": "tuple"
                }
            ],
            "stateMutability": "view",
            "type": "function"
        },
        {
            "inputs": [
                {
                    "internalType": "uint256",
                    "name": "",
                    "type": "uint256"
                }
            ],
            "name": "idToDependency",
            "outputs": [
                {
                    "internalType": "uint256",
                    "name": "dependencyId",
                    "type": "uint256"
                },
                {
                    "internalType": "string",
                    "name": "dependencyName",
                    "type": "string"
                },
                {
                    "internalType": "string",
                    "name": "dependencyRelationship",
                    "type": "string"
                },
                {
                    "internalType": "string",
                    "name": "dependencyAddress",
                    "type": "string"
                },
                {
                    "internalType": "uint256",
                    "name": "contactNumber",
                    "type": "uint256"
                }
            ],
            "stateMutability": "view",
            "type": "function"
        },
        {
            "inputs": [
                {
                    "internalType": "uint256",
                    "name": "",
                    "type": "uint256"
                }
            ],
            "name": "idToExaminationResult",
            "outputs": [
                {
                    "internalType": "uint256",
                    "name": "id",
                    "type": "uint256"
                },
                {
                    "internalType": "string",
                    "name": "ipfsHash",
                    "type": "string"
                },
                {
                    "internalType": "string",
                    "name": "title",
                    "type": "string"
                },
                {
                    "internalType": "string",
                    "name": "description",
                    "type": "string"
                },
                {
                    "internalType": "uint256",
                    "name": "uploadedOn",
                    "type": "uint256"
                }
            ],
            "stateMutability": "view",
            "type": "function"
        },
        {
            "inputs": [
                {
                    "internalType": "uint256",
                    "name": "",
                    "type": "uint256"
                }
            ],
            "name": "idToMedication",
            "outputs": [
                {
                    "internalType": "uint256",
                    "name": "medicationId",
                    "type": "uint256"
                },
                {
                    "internalType": "string",
                    "name": "medicationName",
                    "type": "string"
                },
                {
                    "internalType": "string",
                    "name": "dosage",
                    "type": "string"
                },
                {
                    "internalType": "uint256",
                    "name": "price",
                    "type": "uint256"
                }
            ],
            "stateMutability": "view",
            "type": "function"
        },
        {
            "inputs": [
                {
                    "internalType": "uint256",
                    "name": "",
                    "type": "uint256"
                }
            ],
            "name": "medicationIdToBool",
            "outputs": [
                {
                    "internalType": "bool",
                    "name": "",
                    "type": "bool"
                }
            ],
            "stateMutability": "view",
            "type": "function"
        },
        {
            "inputs": [
                {
                    "internalType": "string",
                    "name": "_name",
                    "type": "string"
                },
                {
                    "internalType": "string",
                    "name": "_specialty",
                    "type": "string"
                },
                {
                    "internalType": "string",
                    "name": "_workplace",
                    "type": "string"
                }
            ],
            "name": "registerNewDoctor",
            "outputs": [],
            "stateMutability": "nonpayable",
            "type": "function"
        },
        {
            "inputs": [
                {
                    "internalType": "string",
                    "name": "_name",
                    "type": "string"
                },
                {
                    "internalType": "enum PatientHealthRecord.Gender",
                    "name": "_gender",
                    "type": "uint8"
                },
                {
                    "internalType": "uint8",
                    "name": "_age",
                    "type": "uint8"
                }
            ],
            "name": "registerNewPatient",
            "outputs": [],
            "stateMutability": "nonpayable",
            "type": "function"
        },
        {
            "inputs": [
                {
                    "internalType": "uint8",
                    "name": "_age",
                    "type": "uint8"
                }
            ],
            "name": "updateMyAge",
            "outputs": [],
            "stateMutability": "nonpayable",
            "type": "function"
        },
        {
            "inputs": [
                {
                    "internalType": "address",
                    "name": "",
                    "type": "address"
                }
            ],
            "name": "verifiedDoctor",
            "outputs": [
                {
                    "internalType": "bool",
                    "name": "",
                    "type": "bool"
                }
            ],
            "stateMutability": "view",
            "type": "function"
        },
        {
            "inputs": [],
            "name": "viewExaminationResult",
            "outputs": [
                {
                    "components": [
                        {
                            "internalType": "uint256",
                            "name": "id",
                            "type": "uint256"
                        },
                        {
                            "internalType": "string",
                            "name": "ipfsHash",
                            "type": "string"
                        },
                        {
                            "internalType": "string",
                            "name": "title",
                            "type": "string"
                        },
                        {
                            "internalType": "string",
                            "name": "description",
                            "type": "string"
                        },
                        {
                            "internalType": "uint256",
                            "name": "uploadedOn",
                            "type": "uint256"
                        }
                    ],
                    "internalType": "struct PatientHealthRecord.ExaminationResults[]",
                    "name": "",
                    "type": "tuple[]"
                }
            ],
            "stateMutability": "view",
            "type": "function"
        },
        {
            "inputs": [],
            "name": "viewListOfDoctors",
            "outputs": [
                {
                    "components": [
                        {
                            "internalType": "uint256",
                            "name": "doctorID",
                            "type": "uint256"
                        },
                        {
                            "internalType": "string",
                            "name": "doctorName",
                            "type": "string"
                        },
                        {
                            "internalType": "string",
                            "name": "specialty",
                            "type": "string"
                        },
                        {
                            "internalType": "string",
                            "name": "workplace",
                            "type": "string"
                        }
                    ],
                    "internalType": "struct PatientHealthRecord.Doctor[]",
                    "name": "",
                    "type": "tuple[]"
                }
            ],
            "stateMutability": "view",
            "type": "function"
        },
        {
            "inputs": [],
            "name": "viewListofDependencies",
            "outputs": [
                {
                    "components": [
                        {
                            "internalType": "uint256",
                            "name": "dependencyId",
                            "type": "uint256"
                        },
                        {
                            "internalType": "string",
                            "name": "dependencyName",
                            "type": "string"
                        },
                        {
                            "internalType": "string",
                            "name": "dependencyRelationship",
                            "type": "string"
                        },
                        {
                            "internalType": "string",
                            "name": "dependencyAddress",
                            "type": "string"
                        },
                        {
                            "internalType": "uint256",
                            "name": "contactNumber",
                            "type": "uint256"
                        }
                    ],
                    "internalType": "struct PatientHealthRecord.Dependency[]",
                    "name": "",
                    "type": "tuple[]"
                }
            ],
            "stateMutability": "view",
            "type": "function"
        },
        {
            "inputs": [],
            "name": "viewListofMedications",
            "outputs": [
                {
                    "components": [
                        {
                            "internalType": "uint256",
                            "name": "medicationId",
                            "type": "uint256"
                        },
                        {
                            "internalType": "string",
                            "name": "medicationName",
                            "type": "string"
                        },
                        {
                            "internalType": "string",
                            "name": "dosage",
                            "type": "string"
                        },
                        {
                            "internalType": "uint256",
                            "name": "price",
                            "type": "uint256"
                        }
                    ],
                    "internalType": "struct PatientHealthRecord.Medication[]",
                    "name": "",
                    "type": "tuple[]"
                }
            ],
            "stateMutability": "view",
            "type": "function"
        },
        {
            "inputs": [],
            "name": "viewMyRecords",
            "outputs": [
                {
                    "components": [
                        {
                            "internalType": "uint256",
                            "name": "patientID",
                            "type": "uint256"
                        },
                        {
                            "internalType": "string",
                            "name": "patientName",
                            "type": "string"
                        },
                        {
                            "internalType": "enum PatientHealthRecord.Gender",
                            "name": "patientGender",
                            "type": "uint8"
                        },
                        {
                            "internalType": "uint8",
                            "name": "patientAge",
                            "type": "uint8"
                        },
                        {
                            "internalType": "string[]",
                            "name": "caseSummaries",
                            "type": "string[]"
                        },
                        {
                            "components": [
                                {
                                    "internalType": "uint256",
                                    "name": "medicationId",
                                    "type": "uint256"
                                },
                                {
                                    "internalType": "string",
                                    "name": "medicationName",
                                    "type": "string"
                                },
                                {
                                    "internalType": "string",
                                    "name": "dosage",
                                    "type": "string"
                                },
                                {
                                    "internalType": "uint256",
                                    "name": "price",
                                    "type": "uint256"
                                }
                            ],
                            "internalType": "struct PatientHealthRecord.Medication[]",
                            "name": "prescriptions",
                            "type": "tuple[]"
                        },
                        {
                            "components": [
                                {
                                    "internalType": "uint256",
                                    "name": "dependencyId",
                                    "type": "uint256"
                                },
                                {
                                    "internalType": "string",
                                    "name": "dependencyName",
                                    "type": "string"
                                },
                                {
                                    "internalType": "string",
                                    "name": "dependencyRelationship",
                                    "type": "string"
                                },
                                {
                                    "internalType": "string",
                                    "name": "dependencyAddress",
                                    "type": "string"
                                },
                                {
                                    "internalType": "uint256",
                                    "name": "contactNumber",
                                    "type": "uint256"
                                }
                            ],
                            "internalType": "struct PatientHealthRecord.Dependency[]",
                            "name": "dependencies",
                            "type": "tuple[]"
                        }
                    ],
                    "internalType": "struct PatientHealthRecord.Patient",
                    "name": "",
                    "type": "tuple"
                }
            ],
            "stateMutability": "view",
            "type": "function"
        },
        {
            "inputs": [
                {
                    "internalType": "uint256",
                    "name": "_patientID",
                    "type": "uint256"
                }
            ],
            "name": "viewPatientRecords",
            "outputs": [
                {
                    "components": [
                        {
                            "internalType": "uint256",
                            "name": "patientID",
                            "type": "uint256"
                        },
                        {
                            "internalType": "string",
                            "name": "patientName",
                            "type": "string"
                        },
                        {
                            "internalType": "enum PatientHealthRecord.Gender",
                            "name": "patientGender",
                            "type": "uint8"
                        },
                        {
                            "internalType": "uint8",
                            "name": "patientAge",
                            "type": "uint8"
                        },
                        {
                            "internalType": "string[]",
                            "name": "caseSummaries",
                            "type": "string[]"
                        },
                        {
                            "components": [
                                {
                                    "internalType": "uint256",
                                    "name": "medicationId",
                                    "type": "uint256"
                                },
                                {
                                    "internalType": "string",
                                    "name": "medicationName",
                                    "type": "string"
                                },
                                {
                                    "internalType": "string",
                                    "name": "dosage",
                                    "type": "string"
                                },
                                {
                                    "internalType": "uint256",
                                    "name": "price",
                                    "type": "uint256"
                                }
                            ],
                            "internalType": "struct PatientHealthRecord.Medication[]",
                            "name": "prescriptions",
                            "type": "tuple[]"
                        },
                        {
                            "components": [
                                {
                                    "internalType": "uint256",
                                    "name": "dependencyId",
                                    "type": "uint256"
                                },
                                {
                                    "internalType": "string",
                                    "name": "dependencyName",
                                    "type": "string"
                                },
                                {
                                    "internalType": "string",
                                    "name": "dependencyRelationship",
                                    "type": "string"
                                },
                                {
                                    "internalType": "string",
                                    "name": "dependencyAddress",
                                    "type": "string"
                                },
                                {
                                    "internalType": "uint256",
                                    "name": "contactNumber",
                                    "type": "uint256"
                                }
                            ],
                            "internalType": "struct PatientHealthRecord.Dependency[]",
                            "name": "dependencies",
                            "type": "tuple[]"
                        }
                    ],
                    "internalType": "struct PatientHealthRecord.Patient",
                    "name": "",
                    "type": "tuple"
                }
            ],
            "stateMutability": "view",
            "type": "function"
        }
    ],
    "bytecode": "0x608060405260016000556001805534801561001957600080fd5b50613faa806100296000396000f3fe608060405234801561001057600080fd5b506004361061018e5760003560e01c8063549fc2e0116100de5780638abe828f116100975780638f33295d116100715780638f33295d146103c8578063ad86ac83146103eb578063b3799fe314610402578063bd71d0b41461040b57600080fd5b80638abe828f1461038a5780638c691a4b1461039d5780638eb1530c146103a557600080fd5b8063549fc2e0146102f757806361fad0081461030a5780637883d4a21461031f5780637f18e26314610332578063827219bb146103555780638a63bd181461037557600080fd5b80631f52e4611161014b5780634162aa6d116101255780634162aa6d1461029957806344f6fe6f146102bc57806346216098146102d15780634f5bdf1c146102e457600080fd5b80631f52e46114610251578063360a108f146102645780633b6d5b8c1461027957600080fd5b80630134234e1461019357806305a71ab4146101c05780630ec785a4146101f3578063168901c714610216578063181f49761461022b5780631e29a19f1461023e575b600080fd5b6101a66101a1366004613356565b61041e565b6040516101b79594939291906133b5565b60405180910390f35b6101e36101ce366004613356565b600f6020526000908152604090205460ff1681565b60405190151581526020016101b7565b610206610201366004613407565b6105e5565b6040516101b79493929190613437565b6102296102243660046134e0565b6107a6565b005b61022961023936600461354a565b6109e8565b61022961024c36600461356c565b610b99565b61022961025f366004613617565b610e5f565b61026c610f4f565b6040516101b79190613721565b61028c610287366004613356565b6111ad565b6040516101b7919061378f565b6101e36102a7366004613407565b60086020526000908152604090205460ff1681565b6102c4611427565b6040516101b791906137a2565b6102296102df366004613804565b611672565b6102296102f236600461389e565b611803565b6102296103053660046138b9565b611888565b610312611ae7565b6040516101b7919061393b565b61022961032d366004613356565b611d3c565b610345610340366004613356565b611e44565b6040516101b79493929190613990565b610368610363366004613356565b611f7d565b6040516101b79190613aaf565b61037d61260f565b6040516101b79190613b6e565b6101a6610398366004613356565b6127d2565b6103686127f4565b6101e36103b3366004613356565b60116020526000908152604090205460ff1681565b6101e36103d6366004613356565b60136020526000908152604090205460ff1681565b6103f460015481565b6040519081526020016101b7565b6103f460005481565b61022961041936600461356c565b612e01565b6012602052600090815260409020805460018201805491929161044090613b81565b80601f016020809104026020016040519081016040528092919081815260200182805461046c90613b81565b80156104b95780601f1061048e576101008083540402835291602001916104b9565b820191906000526020600020905b81548152906001019060200180831161049c57829003601f168201915b5050505050908060020180546104ce90613b81565b80601f01602080910402602001604051908101604052809291908181526020018280546104fa90613b81565b80156105475780601f1061051c57610100808354040283529160200191610547565b820191906000526020600020905b81548152906001019060200180831161052a57829003601f168201915b50505050509080600301805461055c90613b81565b80601f016020809104026020016040519081016040528092919081815260200182805461058890613b81565b80156105d55780601f106105aa576101008083540402835291602001916105d5565b820191906000526020600020905b8154815290600101906020018083116105b857829003601f168201915b5050505050908060040154905085565b600a602052600090815260409020805460018201805491929161060790613b81565b80601f016020809104026020016040519081016040528092919081815260200182805461063390613b81565b80156106805780601f1061065557610100808354040283529160200191610680565b820191906000526020600020905b81548152906001019060200180831161066357829003601f168201915b50505050509080600201805461069590613b81565b80601f01602080910402602001604051908101604052809291908181526020018280546106c190613b81565b801561070e5780601f106106e35761010080835404028352916020019161070e565b820191906000526020600020905b8154815290600101906020018083116106f157829003601f168201915b50505050509080600301805461072390613b81565b80601f016020809104026020016040519081016040528092919081815260200182805461074f90613b81565b801561079c5780601f106107715761010080835404028352916020019161079c565b820191906000526020600020905b81548152906001019060200180831161077f57829003601f168201915b5050505050905084565b8060ff16600081116107d35760405162461bcd60e51b81526004016107ca90613bb5565b60405180910390fd5b3360009081526007602052604090205460ff16156108335760405162461bcd60e51b815260206004820152601f60248201527f50617469656e742068617320616c72656164792072656769737465726564210060448201526064016107ca565b3360009081526009602052604081209054815560018101610855868883613c66565b5060028101805485919060ff191660018381811115610876576108766139cd565b021790555060028101805460ff85166101000261ff0019909116179055600080548152600b6020526040812080546001600160a01b03191633179055600480546001818101835591909252825460069092027f8a35acfbc15ff81a39ae7d344fd709f28e8600b4aa8c65c6b64bfe7fe36bd19b81019283558392917f8a35acfbc15ff81a39ae7d344fd709f28e8600b4aa8c65c6b64bfe7fe36bd19c9091019061092290840182613d21565b50600282810154908201805460ff9092169160ff19166001838181111561094b5761094b6139cd565b0217905550600282810154908201805461ff0019166101009283900460ff169092029190911790556003808301805461098792840191906130f2565b506004828101805461099c928401919061314a565b50600582810180546109b192840191906131d0565b5050336000908152600760205260408120805460ff1916600117905580549150806109db83613df8565b9190505550505050505050565b3360009081526008602052604090205460ff161515600114610a1c5760405162461bcd60e51b81526004016107ca90613e1f565b336000908152600d60209081526040808320858452600b8352818420546001600160a01b03168452909152902054829060ff16610a6b5760405162461bcd60e51b81526004016107ca90613e46565b8260008111610a8c5760405162461bcd60e51b81526004016107ca90613bb5565b8260008111610aad5760405162461bcd60e51b81526004016107ca90613bb5565b6000848152600f602052604090205460ff161515600114610b105760405162461bcd60e51b815260206004820152601a60248201527f4d656469636174696f6e206e6f7420726567697374657265642100000000000060448201526064016107ca565b6000858152600b60209081526040808320546001600160a01b0316835260098252808320878452600e83529083206004808301805460018181018355918752949095208254949091020192835590929091829181810190610b7390840182613d21565b50600281810190610b8690840182613d21565b5060039182015491015550505050505050565b3360009081526007602052604090205460ff161515600114610bcd5760405162461bcd60e51b81526004016107ca90613e9a565b8760008111610bee5760405162461bcd60e51b81526004016107ca90613bb5565b8160008111610c0f5760405162461bcd60e51b81526004016107ca90613bb5565b60008a81526013602052604090205460ff1615610c6e5760405162461bcd60e51b815260206004820152601f60248201527f446570656e64656e63792020616c72656164792072656769737465726564210060448201526064016107ca565b60008a8152601360209081526040808320805460ff19166001179055805160a0810182528d81528151601f8d018490048402810184019092528b82529182810191908d908d9081908401838280828437600092019190915250505090825250604080516020601f8c018190048102820181019092528a815291810191908b908b9081908401838280828437600092019190915250505090825250604080516020601f8a0181900481028201810190925288815291810191908990899081908401838280828437600092018290525093855250505060209182018790528d81526012825260409020825181559082015191925082916001820190610d719082613ec2565b5060408201516002820190610d869082613ec2565b5060608201516003820190610d9b9082613ec2565b506080919091015160049091015560038054600181018255600091909152815160059091027fc2575a0e9e593c00f959f8c92f12db2869c3395a3b0502d05e2516446f71f85b810191825560208301518392917fc2575a0e9e593c00f959f8c92f12db2869c3395a3b0502d05e2516446f71f85c0190610e1b9082613ec2565b5060408201516002820190610e309082613ec2565b5060608201516003820190610e459082613ec2565b506080820151816004015550505050505050505050505050565b3360009081526008602052604090205460ff161515600114610e935760405162461bcd60e51b81526004016107ca90613e1f565b336000908152600d60209081526040808320848452600b8352818420546001600160a01b03168452909152902054819060ff16610ee25760405162461bcd60e51b81526004016107ca90613e46565b8160008111610f035760405162461bcd60e51b81526004016107ca90613bb5565b6000838152600b60209081526040808320546001600160a01b03168084526009835290832060030180546001810182559084529190922001610f46868883613c66565b50505050505050565b3360009081526007602052604090205460609060ff161515600114610f865760405162461bcd60e51b81526004016107ca90613e9a565b6003805480602002602001604051908101604052809291908181526020016000905b828210156111a457838290600052602060002090600502016040518060a001604052908160008201548152602001600182018054610fe590613b81565b80601f016020809104026020016040519081016040528092919081815260200182805461101190613b81565b801561105e5780601f106110335761010080835404028352916020019161105e565b820191906000526020600020905b81548152906001019060200180831161104157829003601f168201915b5050505050815260200160028201805461107790613b81565b80601f01602080910402602001604051908101604052809291908181526020018280546110a390613b81565b80156110f05780601f106110c5576101008083540402835291602001916110f0565b820191906000526020600020905b8154815290600101906020018083116110d357829003601f168201915b5050505050815260200160038201805461110990613b81565b80601f016020809104026020016040519081016040528092919081815260200182805461113590613b81565b80156111825780601f1061115757610100808354040283529160200191611182565b820191906000526020600020905b81548152906001019060200180831161116557829003601f168201915b5050505050815260200160048201548152505081526020019060010190610fa8565b50505050905090565b6111d86040518060800160405280600081526020016060815260200160608152602001606081525090565b81600081116111f95760405162461bcd60e51b81526004016107ca90613bb5565b3360009081526007602052604090205460ff16151560011461122d5760405162461bcd60e51b81526004016107ca90613e9a565b6000838152600c60209081526040808320546001600160a01b0316808452600a83529281902081516080810190925280548252600181018054929391929184019161127790613b81565b80601f01602080910402602001604051908101604052809291908181526020018280546112a390613b81565b80156112f05780601f106112c5576101008083540402835291602001916112f0565b820191906000526020600020905b8154815290600101906020018083116112d357829003601f168201915b5050505050815260200160028201805461130990613b81565b80601f016020809104026020016040519081016040528092919081815260200182805461133590613b81565b80156113825780601f1061135757610100808354040283529160200191611382565b820191906000526020600020905b81548152906001019060200180831161136557829003601f168201915b5050505050815260200160038201805461139b90613b81565b80601f01602080910402602001604051908101604052809291908181526020018280546113c790613b81565b80156114145780601f106113e957610100808354040283529160200191611414565b820191906000526020600020905b8154815290600101906020018083116113f757829003601f168201915b5050505050815250509250505b50919050565b3360009081526007602052604090205460609060ff16151560011461145e5760405162461bcd60e51b81526004016107ca90613e9a565b6005805480602002602001604051908101604052809291908181526020016000905b828210156111a45783829060005260206000209060040201604051806080016040529081600082015481526020016001820180546114bd90613b81565b80601f01602080910402602001604051908101604052809291908181526020018280546114e990613b81565b80156115365780601f1061150b57610100808354040283529160200191611536565b820191906000526020600020905b81548152906001019060200180831161151957829003601f168201915b5050505050815260200160028201805461154f90613b81565b80601f016020809104026020016040519081016040528092919081815260200182805461157b90613b81565b80156115c85780601f1061159d576101008083540402835291602001916115c8565b820191906000526020600020905b8154815290600101906020018083116115ab57829003601f168201915b505050505081526020016003820180546115e190613b81565b80601f016020809104026020016040519081016040528092919081815260200182805461160d90613b81565b801561165a5780601f1061162f5761010080835404028352916020019161165a565b820191906000526020600020905b81548152906001019060200180831161163d57829003601f168201915b50505050508152505081526020019060010190611480565b3360009081526008602052604090205460ff16156116d25760405162461bcd60e51b815260206004820152601e60248201527f446f63746f722068617320616c7265616479207265676973746572656421000060448201526064016107ca565b336000908152600860209081526040808320805460ff19166001908117909155600a9092529091208154815590810161170c878983613c66565b506002810161171c858783613c66565b506003810161172c838583613c66565b506005805460018181018355600092909252825460049091027f036b6384b5eca791c62761152d0c79bb0604c104a5fb6f4eb0703f3154bb3db0810191825583927f036b6384b5eca791c62761152d0c79bb0604c104a5fb6f4eb0703f3154bb3db19091019061179e90840182613d21565b506002818101906117b190840182613d21565b506003818101906117c490840182613d21565b5050600180546000908152600c6020526040812080546001600160a01b03191633179055815492506117f583613df8565b919050555050505050505050565b8060ff16600081116118275760405162461bcd60e51b81526004016107ca90613bb5565b3360009081526007602052604090205460ff16151560011461185b5760405162461bcd60e51b81526004016107ca90613e9a565b50336000908152600960205260409020600201805460ff9092166101000261ff0019909216919091179055565b3360009081526008602052604090205460ff1615156001146118bc5760405162461bcd60e51b81526004016107ca90613e1f565b85600081116118dd5760405162461bcd60e51b81526004016107ca90613bb5565b81600081116118fe5760405162461bcd60e51b81526004016107ca90613bb5565b6000888152600f602052604090205460ff161561195d5760405162461bcd60e51b815260206004820152601e60248201527f4d656469636174696f6e20616c7265616479207265676973746572656421000060448201526064016107ca565b6000888152600f60209081526040808320805460ff1916600117905580516080810182528b81528151601f8b018490048402810184019092528982529182810191908b908b9081908401838280828437600092019190915250505090825250604080516020601f8a0181900481028201810190925288815291810191908990899081908401838280828437600092018290525093855250505060209182018790528b8152600e825260409020825181559082015191925082916001820190611a259082613ec2565b5060408201516002820190611a3a9082613ec2565b506060919091015160039091015560068054600181018255600091909152815160049091027ff652222313e28459528d920b65115c16c04f3efc82aaedc97be59f3f377c0d3f810191825560208301518392917ff652222313e28459528d920b65115c16c04f3efc82aaedc97be59f3f377c0d400190611aba9082613ec2565b5060408201516002820190611acf9082613ec2565b50606082015181600301555050505050505050505050565b3360009081526007602052604090205460609060ff161515600114611b1e5760405162461bcd60e51b81526004016107ca90613e9a565b6002805480602002602001604051908101604052809291908181526020016000905b828210156111a457838290600052602060002090600502016040518060a001604052908160008201548152602001600182018054611b7d90613b81565b80601f0160208091040260200160405190810160405280929190818152602001828054611ba990613b81565b8015611bf65780601f10611bcb57610100808354040283529160200191611bf6565b820191906000526020600020905b815481529060010190602001808311611bd957829003601f168201915b50505050508152602001600282018054611c0f90613b81565b80601f0160208091040260200160405190810160405280929190818152602001828054611c3b90613b81565b8015611c885780601f10611c5d57610100808354040283529160200191611c88565b820191906000526020600020905b815481529060010190602001808311611c6b57829003601f168201915b50505050508152602001600382018054611ca190613b81565b80601f0160208091040260200160405190810160405280929190818152602001828054611ccd90613b81565b8015611d1a5780601f10611cef57610100808354040283529160200191611d1a565b820191906000526020600020905b815481529060010190602001808311611cfd57829003601f168201915b5050505050815260200160048201548152505081526020019060010190611b40565b8060008111611d5d5760405162461bcd60e51b81526004016107ca90613bb5565b3360009081526007602052604090205460ff161515600114611d915760405162461bcd60e51b81526004016107ca90613e9a565b6000828152600c60209081526040808320546001600160a01b03168352600890915290205460ff161515600114611e0a5760405162461bcd60e51b815260206004820152601e60248201527f5468697320646f63746f72206973206e6f74207265676973746572656421000060448201526064016107ca565b506000908152600c60209081526040808320546001600160a01b03168352600d82528083203384529091529020805460ff19166001179055565b600e6020526000908152604090208054600182018054919291611e6690613b81565b80601f0160208091040260200160405190810160405280929190818152602001828054611e9290613b81565b8015611edf5780601f10611eb457610100808354040283529160200191611edf565b820191906000526020600020905b815481529060010190602001808311611ec257829003601f168201915b505050505090806002018054611ef490613b81565b80601f0160208091040260200160405190810160405280929190818152602001828054611f2090613b81565b8015611f6d5780601f10611f4257610100808354040283529160200191611f6d565b820191906000526020600020905b815481529060010190602001808311611f5057829003601f168201915b5050505050908060030154905084565b611fc06040805160e08101825260008082526060602083015290918201908152602001600060ff1681526020016060815260200160608152602001606081525090565b3360009081526008602052604090205460ff161515600114611ff45760405162461bcd60e51b81526004016107ca90613e1f565b336000908152600d60209081526040808320858452600b8352818420546001600160a01b03168452909152902054829060ff166120435760405162461bcd60e51b81526004016107ca90613e46565b82600081116120645760405162461bcd60e51b81526004016107ca90613bb5565b6000848152600b60209081526040808320546001600160a01b031683526009825291829020825160e081019093528054835260018101805491928401916120aa90613b81565b80601f01602080910402602001604051908101604052809291908181526020018280546120d690613b81565b80156121235780601f106120f857610100808354040283529160200191612123565b820191906000526020600020905b81548152906001019060200180831161210657829003601f168201915b5050509183525050600282015460209091019060ff16600181111561214a5761214a6139cd565b600181111561215b5761215b6139cd565b81526002820154610100900460ff16602080830191909152600383018054604080518285028101850182528281529401939260009084015b8282101561223f5783829060005260206000200180546121b290613b81565b80601f01602080910402602001604051908101604052809291908181526020018280546121de90613b81565b801561222b5780601f106122005761010080835404028352916020019161222b565b820191906000526020600020905b81548152906001019060200180831161220e57829003601f168201915b505050505081526020019060010190612193565b50505050815260200160048201805480602002602001604051908101604052809291908181526020016000905b828210156123d65783829060005260206000209060040201604051806080016040529081600082015481526020016001820180546122a990613b81565b80601f01602080910402602001604051908101604052809291908181526020018280546122d590613b81565b80156123225780601f106122f757610100808354040283529160200191612322565b820191906000526020600020905b81548152906001019060200180831161230557829003601f168201915b5050505050815260200160028201805461233b90613b81565b80601f016020809104026020016040519081016040528092919081815260200182805461236790613b81565b80156123b45780601f10612389576101008083540402835291602001916123b4565b820191906000526020600020905b81548152906001019060200180831161239757829003601f168201915b505050505081526020016003820154815250508152602001906001019061226c565b50505050815260200160058201805480602002602001604051908101604052809291908181526020016000905b828210156125ff57838290600052602060002090600502016040518060a00160405290816000820154815260200160018201805461244090613b81565b80601f016020809104026020016040519081016040528092919081815260200182805461246c90613b81565b80156124b95780601f1061248e576101008083540402835291602001916124b9565b820191906000526020600020905b81548152906001019060200180831161249c57829003601f168201915b505050505081526020016002820180546124d290613b81565b80601f01602080910402602001604051908101604052809291908181526020018280546124fe90613b81565b801561254b5780601f106125205761010080835404028352916020019161254b565b820191906000526020600020905b81548152906001019060200180831161252e57829003601f168201915b5050505050815260200160038201805461256490613b81565b80601f016020809104026020016040519081016040528092919081815260200182805461259090613b81565b80156125dd5780601f106125b2576101008083540402835291602001916125dd565b820191906000526020600020905b8154815290600101906020018083116125c057829003601f168201915b5050505050815260200160048201548152505081526020019060010190612403565b5050509152509095945050505050565b3360009081526008602052604090205460609060ff1615156001146126465760405162461bcd60e51b81526004016107ca90613e1f565b6006805480602002602001604051908101604052809291908181526020016000905b828210156111a45783829060005260206000209060040201604051806080016040529081600082015481526020016001820180546126a590613b81565b80601f01602080910402602001604051908101604052809291908181526020018280546126d190613b81565b801561271e5780601f106126f35761010080835404028352916020019161271e565b820191906000526020600020905b81548152906001019060200180831161270157829003601f168201915b5050505050815260200160028201805461273790613b81565b80601f016020809104026020016040519081016040528092919081815260200182805461276390613b81565b80156127b05780601f10612785576101008083540402835291602001916127b0565b820191906000526020600020905b81548152906001019060200180831161279357829003601f168201915b5050505050815260200160038201548152505081526020019060010190612668565b6010602052600090815260409020805460018201805491929161044090613b81565b6128376040805160e08101825260008082526060602083015290918201908152602001600060ff1681526020016060815260200160608152602001606081525090565b3360009081526007602052604090205460ff16151560011461286b5760405162461bcd60e51b81526004016107ca90613e9a565b33600090815260096020908152604091829020825160e0810190935280548352600181018054919284019161289f90613b81565b80601f01602080910402602001604051908101604052809291908181526020018280546128cb90613b81565b80156129185780601f106128ed57610100808354040283529160200191612918565b820191906000526020600020905b8154815290600101906020018083116128fb57829003601f168201915b5050509183525050600282015460209091019060ff16600181111561293f5761293f6139cd565b6001811115612950576129506139cd565b81526002820154610100900460ff16602080830191909152600383018054604080518285028101850182528281529401939260009084015b82821015612a345783829060005260206000200180546129a790613b81565b80601f01602080910402602001604051908101604052809291908181526020018280546129d390613b81565b8015612a205780601f106129f557610100808354040283529160200191612a20565b820191906000526020600020905b815481529060010190602001808311612a0357829003601f168201915b505050505081526020019060010190612988565b50505050815260200160048201805480602002602001604051908101604052809291908181526020016000905b82821015612bcb578382906000526020600020906004020160405180608001604052908160008201548152602001600182018054612a9e90613b81565b80601f0160208091040260200160405190810160405280929190818152602001828054612aca90613b81565b8015612b175780601f10612aec57610100808354040283529160200191612b17565b820191906000526020600020905b815481529060010190602001808311612afa57829003601f168201915b50505050508152602001600282018054612b3090613b81565b80601f0160208091040260200160405190810160405280929190818152602001828054612b5c90613b81565b8015612ba95780601f10612b7e57610100808354040283529160200191612ba9565b820191906000526020600020905b815481529060010190602001808311612b8c57829003601f168201915b5050505050815260200160038201548152505081526020019060010190612a61565b50505050815260200160058201805480602002602001604051908101604052809291908181526020016000905b82821015612df457838290600052602060002090600502016040518060a001604052908160008201548152602001600182018054612c3590613b81565b80601f0160208091040260200160405190810160405280929190818152602001828054612c6190613b81565b8015612cae5780601f10612c8357610100808354040283529160200191612cae565b820191906000526020600020905b815481529060010190602001808311612c9157829003601f168201915b50505050508152602001600282018054612cc790613b81565b80601f0160208091040260200160405190810160405280929190818152602001828054612cf390613b81565b8015612d405780601f10612d1557610100808354040283529160200191612d40565b820191906000526020600020905b815481529060010190602001808311612d2357829003601f168201915b50505050508152602001600382018054612d5990613b81565b80601f0160208091040260200160405190810160405280929190818152602001828054612d8590613b81565b8015612dd25780601f10612da757610100808354040283529160200191612dd2565b820191906000526020600020905b815481529060010190602001808311612db557829003601f168201915b5050505050815260200160048201548152505081526020019060010190612bf8565b5050505081525050905090565b3360009081526008602052604090205460ff161515600114612e355760405162461bcd60e51b81526004016107ca90613e1f565b336000908152600d602090815260408083208b8452600b8352818420546001600160a01b03168452909152902054889060ff16612e845760405162461bcd60e51b81526004016107ca90613e46565b8160008111612ea55760405162461bcd60e51b81526004016107ca90613bb5565b602e8814612eb257600080fd5b8515801590612ec357506101008611155b612ecc57600080fd5b6104008410612eda57600080fd5b60008a81526011602052604090205460ff1615612f455760405162461bcd60e51b8152602060048201526024808201527f4578616d696e6174696f6e20526573756c7420616c72656164792075706c6f616044820152636465642160e01b60648201526084016107ca565b60008a8152601160209081526040808320805460ff19166001179055805160a0810182528d81528151601f8d018490048402810184019092528b82529182810191908d908d9081908401838280828437600092019190915250505090825250604080516020601f8c018190048102820181019092528a815291810191908b908b9081908401838280828437600092019190915250505090825250604080516020601f8a0181900481028201810190925288815291810191908990899081908401838280828437600092018290525093855250505060209182018790528d815260108252604090208251815590820151919250829160018201906130489082613ec2565b506040820151600282019061305d9082613ec2565b50606082015160038201906130729082613ec2565b506080919091015160049091015560028054600181018255600091909152815160059091027f405787fa12a823e0f2b7631cc41b3ba8828b3321ca811111fa75cd3aa3bb5ace810191825560208301518392917f405787fa12a823e0f2b7631cc41b3ba8828b3321ca811111fa75cd3aa3bb5acf0190610e1b9082613ec2565b82805482825590600052602060002090810192821561313a5760005260206000209182015b8281111561313a578161312a8482613d21565b5091600101919060010190613117565b50613146929150613269565b5090565b8280548282559060005260206000209060040281019282156131c45760005260206000209160040282015b828111156131c45782548255828260018082019061319590840182613d21565b506002818101906131a890840182613d21565b5060038201548160030155505091600401919060040190613175565b50613146929150613286565b82805482825590600052602060002090600502810192821561325d5760005260206000209160050282015b8281111561325d5782548255828260018082019061321b90840182613d21565b5060028181019061322e90840182613d21565b5060038181019061324190840182613d21565b50600482015481600401555050916005019190600501906131fb565b506131469291506132be565b8082111561314657600061327d8282613304565b50600101613269565b808211156131465760008082556132a06001830182613304565b6132ae600283016000613304565b5060006003820155600401613286565b808211156131465760008082556132d86001830182613304565b6132e6600283016000613304565b6132f4600383016000613304565b50600060048201556005016132be565b50805461331090613b81565b6000825580601f10613320575050565b601f01602090049060005260206000209081019061333e9190613341565b50565b5b808211156131465760008155600101613342565b60006020828403121561336857600080fd5b5035919050565b6000815180845260005b8181101561339557602081850181015186830182015201613379565b506000602082860101526020601f19601f83011685010191505092915050565b85815260a0602082015260006133ce60a083018761336f565b82810360408401526133e0818761336f565b905082810360608401526133f4818661336f565b9150508260808301529695505050505050565b60006020828403121561341957600080fd5b81356001600160a01b038116811461343057600080fd5b9392505050565b848152608060208201526000613450608083018661336f565b8281036040840152613462818661336f565b90508281036060840152613476818561336f565b979650505050505050565b60008083601f84011261349357600080fd5b50813567ffffffffffffffff8111156134ab57600080fd5b6020830191508360208285010111156134c357600080fd5b9250929050565b803560ff811681146134db57600080fd5b919050565b600080600080606085870312156134f657600080fd5b843567ffffffffffffffff81111561350d57600080fd5b61351987828801613481565b90955093505060208501356002811061353157600080fd5b915061353f604086016134ca565b905092959194509250565b6000806040838503121561355d57600080fd5b50508035926020909101359150565b60008060008060008060008060a0898b03121561358857600080fd5b88359750602089013567ffffffffffffffff808211156135a757600080fd5b6135b38c838d01613481565b909950975060408b01359150808211156135cc57600080fd5b6135d88c838d01613481565b909750955060608b01359150808211156135f157600080fd5b506135fe8b828c01613481565b999c989b50969995989497949560800135949350505050565b60008060006040848603121561362c57600080fd5b833567ffffffffffffffff81111561364357600080fd5b61364f86828701613481565b909790965060209590950135949350505050565b805182526000602082015160a0602085015261368260a085018261336f565b90506040830151848203604086015261369b828261336f565b915050606083015184820360608601526136b5828261336f565b915050608083015160808501528091505092915050565b600081518084526020808501808196508360051b8101915082860160005b85811015613714578284038952613702848351613663565b988501989350908401906001016136ea565b5091979650505050505050565b60208152600061343060208301846136cc565b805182526000602082015160806020850152613753608085018261336f565b90506040830151848203604086015261376c828261336f565b91505060608301518482036060860152613786828261336f565b95945050505050565b6020815260006134306020830184613734565b6000602080830181845280855180835260408601915060408160051b870101925083870160005b828110156137f757603f198886030184526137e5858351613734565b945092850192908501906001016137c9565b5092979650505050505050565b6000806000806000806060878903121561381d57600080fd5b863567ffffffffffffffff8082111561383557600080fd5b6138418a838b01613481565b9098509650602089013591508082111561385a57600080fd5b6138668a838b01613481565b9096509450604089013591508082111561387f57600080fd5b5061388c89828a01613481565b979a9699509497509295939492505050565b6000602082840312156138b057600080fd5b613430826134ca565b600080600080600080608087890312156138d257600080fd5b86359550602087013567ffffffffffffffff808211156138f157600080fd5b6138fd8a838b01613481565b9097509550604089013591508082111561391657600080fd5b5061392389828a01613481565b979a9699509497949695606090950135949350505050565b6000602080830181845280855180835260408601915060408160051b870101925083870160005b828110156137f757603f1988860301845261397e858351613663565b94509285019290850190600101613962565b8481526080602082015260006139a9608083018661336f565b82810360408401526139bb818661336f565b91505082606083015295945050505050565b634e487b7160e01b600052602160045260246000fd5b600081518084526020808501808196508360051b8101915082860160005b85811015613714578284038952613a1984835161336f565b98850198935090840190600101613a01565b600081518084526020808501808196508360051b8101915082860160005b858110156137145782840389528151608081518652868201518188880152613a738288018261336f565b91505060408083015187830382890152613a8d838261336f565b6060948501519890940197909752505098850198935090840190600101613a49565b60208152815160208201526000602083015160e06040840152613ad661010084018261336f565b9050604084015160028110613afb57634e487b7160e01b600052602160045260246000fd5b806060850152506060840151613b16608085018260ff169052565b506080840151601f19808584030160a0860152613b3383836139e3565b925060a08601519150808584030160c0860152613b508383613a2b565b925060c08601519150808584030160e08601525061378682826136cc565b6020815260006134306020830184613a2b565b600181811c90821680613b9557607f821691505b60208210810361142157634e487b7160e01b600052602260045260246000fd5b6020808252601d908201527f56616c7565206d7573742062652067726561746572207468616e203021000000604082015260600190565b634e487b7160e01b600052604160045260246000fd5b601f821115613c4c57600081815260208120601f850160051c81016020861015613c295750805b601f850160051c820191505b81811015613c4857828155600101613c35565b5050505b505050565b600019600383901b1c191660019190911b1790565b67ffffffffffffffff831115613c7e57613c7e613bec565b613c9283613c8c8354613b81565b83613c02565b6000601f841160018114613cc05760008515613cae5750838201355b613cb88682613c51565b845550613d1a565b600083815260209020601f19861690835b82811015613cf15786850135825560209485019460019092019101613cd1565b5086821015613d0e5760001960f88860031b161c19848701351681555b505060018560011b0183555b5050505050565b818103613d2c575050565b613d368254613b81565b67ffffffffffffffff811115613d4e57613d4e613bec565b613d6281613d5c8454613b81565b84613c02565b6000601f821160018114613d905760008315613d7e5750848201545b613d888482613c51565b855550613d1a565b600085815260209020601f19841690600086815260209020845b83811015613dca5782860154825560019586019590910190602001613daa565b5085831015613de85781850154600019600388901b60f8161c191681555b5050505050600190811b01905550565b600060018201613e1857634e487b7160e01b600052601160045260246000fd5b5060010190565b6020808252600d908201526c4e6f74206120646f63746f722160981b604082015260600190565b60208082526034908201527f446f63746f7220646f6573206e6f74206861766520617070726f76616c20746f60408201527320747265617420746869732070617469656e742160601b606082015260800190565b6020808252600e908201526d4e6f7420612070617469656e742160901b604082015260600190565b815167ffffffffffffffff811115613edc57613edc613bec565b613eea81613d5c8454613b81565b602080601f831160018114613f195760008415613f075750858301515b613f118582613c51565b865550613c48565b600085815260208120601f198616915b82811015613f4857888601518255948401946001909101908401613f29565b5085821015613de857939096015160001960f8600387901b161c19169092555050600190811b0190555056fea26469706673582212203a6305b4ffc981210e4871447d80583f66245f26aaa9ca10ce0cfa16c544f05864736f6c63430008110033",
    "linkReferences": {},
    "deployedLinkReferences": {}
}